{"abi":[{"type":"constructor","inputs":[],"stateMutability":"nonpayable"},{"type":"function","name":"AUCTION","inputs":[],"outputs":[{"name":"","type":"bytes4","internalType":"bytes4"}],"stateMutability":"view"},{"type":"function","name":"AUCTION_DUTCH","inputs":[],"outputs":[{"name":"","type":"bytes4","internalType":"bytes4"}],"stateMutability":"view"},{"type":"function","name":"AUCTION_ENGLISH","inputs":[],"outputs":[{"name":"","type":"bytes4","internalType":"bytes4"}],"stateMutability":"view"},{"type":"function","name":"AUCTION_REVERSE_DUTCH","inputs":[],"outputs":[{"name":"","type":"bytes4","internalType":"bytes4"}],"stateMutability":"view"},{"type":"function","name":"AUCTION_REVERSE_ENGLISH","inputs":[],"outputs":[{"name":"","type":"bytes4","internalType":"bytes4"}],"stateMutability":"view"},{"type":"function","name":"BENCHMARK","inputs":[],"outputs":[{"name":"","type":"bytes4","internalType":"bytes4"}],"stateMutability":"view"},{"type":"function","name":"BOUNTY","inputs":[],"outputs":[{"name":"","type":"bytes4","internalType":"bytes4"}],"stateMutability":"view"},{"type":"function","name":"CLAIM","inputs":[],"outputs":[{"name":"","type":"bytes4","internalType":"bytes4"}],"stateMutability":"view"},{"type":"function","name":"PITCH","inputs":[],"outputs":[{"name":"","type":"bytes4","internalType":"bytes4"}],"stateMutability":"view"},{"type":"function","name":"UPGRADE_INTERFACE_VERSION","inputs":[],"outputs":[{"name":"","type":"string","internalType":"string"}],"stateMutability":"view"},{"type":"function","name":"acceptAuction","inputs":[{"name":"taskId","type":"bytes32","internalType":"bytes32"},{"name":"price","type":"uint256","internalType":"uint256"}],"outputs":[],"stateMutability":"nonpayable"},{"type":"function","name":"acceptSubmission","inputs":[{"name":"taskId","type":"bytes32","internalType":"bytes32"},{"name":"worker","type":"address","internalType":"address"}],"outputs":[],"stateMutability":"nonpayable"},{"type":"function","name":"addForwarder","inputs":[{"name":"forwarder","type":"address","internalType":"address"}],"outputs":[],"stateMutability":"nonpayable"},{"type":"function","name":"cancelTask","inputs":[{"name":"taskId","type":"bytes32","internalType":"bytes32"}],"outputs":[],"stateMutability":"nonpayable"},{"type":"function","name":"claimTask","inputs":[{"name":"taskId","type":"bytes32","internalType":"bytes32"},{"name":"stakeAmount","type":"uint256","internalType":"uint256"}],"outputs":[],"stateMutability":"nonpayable"},{"type":"function","name":"createTask","inputs":[{"name":"reward","type":"uint256","internalType":"uint256"},{"name":"duration","type":"uint256","internalType":"uint256"},{"name":"mode","type":"bytes4","internalType":"bytes4"},{"name":"pitchDeadline","type":"uint256","internalType":"uint256"},{"name":"bidDeadline","type":"uint256","internalType":"uint256"},{"name":"contentHash","type":"bytes32","internalType":"bytes32"},{"name":"contentURI","type":"string","internalType":"string"},{"name":"auctionSubtype","type":"bytes4","internalType":"bytes4"}],"outputs":[{"name":"taskId","type":"bytes32","internalType":"bytes32"}],"stateMutability":"nonpayable"},{"type":"function","name":"defaultFeeBps","inputs":[],"outputs":[{"name":"","type":"uint16","internalType":"uint16"}],"stateMutability":"view"},{"type":"function","name":"feeRecipient","inputs":[],"outputs":[{"name":"","type":"address","internalType":"address"}],"stateMutability":"view"},{"type":"function","name":"forfeitAndReopen","inputs":[{"name":"taskId","type":"bytes32","internalType":"bytes32"}],"outputs":[],"stateMutability":"nonpayable"},{"type":"function","name":"getBids","inputs":[{"name":"taskId","type":"bytes32","internalType":"bytes32"}],"outputs":[{"name":"","type":"tuple[]","internalType":"struct TaskMarket.Bid[]","components":[{"name":"worker","type":"address","internalType":"address"},{"name":"price","type":"uint256","internalType":"uint256"}]}],"stateMutability":"view"},{"type":"function","name":"getTask","inputs":[{"name":"taskId","type":"bytes32","internalType":"bytes32"}],"outputs":[{"name":"","type":"tuple","internalType":"struct TaskMarket.Task","components":[{"name":"id","type":"bytes32","internalType":"bytes32"},{"name":"requester","type":"address","internalType":"address"},{"name":"worker","type":"address","internalType":"address"},{"name":"reward","type":"uint256","internalType":"uint256"},{"name":"createdAt","type":"uint256","internalType":"uint256"},{"name":"expiryTime","type":"uint256","internalType":"uint256"},{"name":"status","type":"uint8","internalType":"enum TaskMarket.TaskStatus"},{"name":"rating","type":"uint8","internalType":"uint8"},{"name":"mode","type":"bytes4","internalType":"bytes4"},{"name":"stakeAmount","type":"uint256","internalType":"uint256"},{"name":"claimer","type":"address","internalType":"address"},{"name":"claimedAt","type":"uint256","internalType":"uint256"},{"name":"pitchDeadline","type":"uint256","internalType":"uint256"},{"name":"feeBps","type":"uint16","internalType":"uint16"},{"name":"bidDeadline","type":"uint256","internalType":"uint256"},{"name":"maxPrice","type":"uint256","internalType":"uint256"},{"name":"deliverable","type":"bytes32","internalType":"bytes32"},{"name":"contentHash","type":"bytes32","internalType":"bytes32"},{"name":"contentURI","type":"string","internalType":"string"},{"name":"auctionSubtype","type":"bytes4","internalType":"bytes4"}]}],"stateMutability":"view"},{"type":"function","name":"getWorkerStats","inputs":[{"name":"worker","type":"address","internalType":"address"}],"outputs":[{"name":"","type":"tuple","internalType":"struct ITMP.WorkerStats","components":[{"name":"completedTasks","type":"uint256","internalType":"uint256"},{"name":"ratedTasks","type":"uint256","internalType":"uint256"},{"name":"totalStars","type":"uint256","internalType":"uint256"}]}],"stateMutability":"view"},{"type":"function","name":"initialize","inputs":[{"name":"_usdcToken","type":"address","internalType":"address"},{"name":"_feeRecipient","type":"address","internalType":"address"},{"name":"_defaultFeeBps","type":"uint16","internalType":"uint16"}],"outputs":[],"stateMutability":"nonpayable"},{"type":"function","name":"isTrustedForwarder","inputs":[{"name":"addr","type":"address","internalType":"address"}],"outputs":[{"name":"","type":"bool","internalType":"bool"}],"stateMutability":"view"},{"type":"function","name":"owner","inputs":[],"outputs":[{"name":"","type":"address","internalType":"address"}],"stateMutability":"view"},{"type":"function","name":"proxiableUUID","inputs":[],"outputs":[{"name":"","type":"bytes32","internalType":"bytes32"}],"stateMutability":"view"},{"type":"function","name":"rateTask","inputs":[{"name":"taskId","type":"bytes32","internalType":"bytes32"},{"name":"rating","type":"uint8","internalType":"uint8"},{"name":"workerAgentId","type":"uint256","internalType":"uint256"},{"name":"feedbackURI","type":"string","internalType":"string"},{"name":"feedbackHash","type":"bytes32","internalType":"bytes32"}],"outputs":[],"stateMutability":"nonpayable"},{"type":"function","name":"refundExpired","inputs":[{"name":"taskId","type":"bytes32","internalType":"bytes32"}],"outputs":[],"stateMutability":"nonpayable"},{"type":"function","name":"removeForwarder","inputs":[{"name":"forwarder","type":"address","internalType":"address"}],"outputs":[],"stateMutability":"nonpayable"},{"type":"function","name":"renounceOwnership","inputs":[],"outputs":[],"stateMutability":"nonpayable"},{"type":"function","name":"reputationRegistry","inputs":[],"outputs":[{"name":"","type":"address","internalType":"address"}],"stateMutability":"view"},{"type":"function","name":"requesterNonce","inputs":[{"name":"","type":"address","internalType":"address"}],"outputs":[{"name":"","type":"uint256","internalType":"uint256"}],"stateMutability":"view"},{"type":"function","name":"selectLowestBidder","inputs":[{"name":"taskId","type":"bytes32","internalType":"bytes32"}],"outputs":[],"stateMutability":"nonpayable"},{"type":"function","name":"selectWorker","inputs":[{"name":"taskId","type":"bytes32","internalType":"bytes32"},{"name":"worker","type":"address","internalType":"address"}],"outputs":[],"stateMutability":"nonpayable"},{"type":"function","name":"setDefaultFeeBps","inputs":[{"name":"feeBps","type":"uint16","internalType":"uint16"}],"outputs":[],"stateMutability":"nonpayable"},{"type":"function","name":"setFeeRecipient","inputs":[{"name":"recipient","type":"address","internalType":"address"}],"outputs":[],"stateMutability":"nonpayable"},{"type":"function","name":"setReputationRegistry","inputs":[{"name":"registry","type":"address","internalType":"address"}],"outputs":[],"stateMutability":"nonpayable"},{"type":"function","name":"stakeForfeit","inputs":[{"name":"","type":"bytes32","internalType":"bytes32"}],"outputs":[{"name":"","type":"uint256","internalType":"uint256"}],"stateMutability":"view"},{"type":"function","name":"submitBid","inputs":[{"name":"taskId","type":"bytes32","internalType":"bytes32"},{"name":"price","type":"uint256","internalType":"uint256"}],"outputs":[],"stateMutability":"nonpayable"},{"type":"function","name":"submitWork","inputs":[{"name":"taskId","type":"bytes32","internalType":"bytes32"},{"name":"deliverable","type":"bytes32","internalType":"bytes32"}],"outputs":[],"stateMutability":"nonpayable"},{"type":"function","name":"supportsInterface","inputs":[{"name":"interfaceId","type":"bytes4","internalType":"bytes4"}],"outputs":[{"name":"","type":"bool","internalType":"bool"}],"stateMutability":"pure"},{"type":"function","name":"taskBids","inputs":[{"name":"","type":"bytes32","internalType":"bytes32"},{"name":"","type":"uint256","internalType":"uint256"}],"outputs":[{"name":"worker","type":"address","internalType":"address"},{"name":"price","type":"uint256","internalType":"uint256"}],"stateMutability":"view"},{"type":"function","name":"tasks","inputs":[{"name":"","type":"bytes32","internalType":"bytes32"}],"outputs":[{"name":"id","type":"bytes32","internalType":"bytes32"},{"name":"requester","type":"address","internalType":"address"},{"name":"worker","type":"address","internalType":"address"},{"name":"reward","type":"uint256","internalType":"uint256"},{"name":"createdAt","type":"uint256","internalType":"uint256"},{"name":"expiryTime","type":"uint256","internalType":"uint256"},{"name":"status","type":"uint8","internalType":"enum TaskMarket.TaskStatus"},{"name":"rating","type":"uint8","internalType":"uint8"},{"name":"mode","type":"bytes4","internalType":"bytes4"},{"name":"stakeAmount","type":"uint256","internalType":"uint256"},{"name":"claimer","type":"address","internalType":"address"},{"name":"claimedAt","type":"uint256","internalType":"uint256"},{"name":"pitchDeadline","type":"uint256","internalType":"uint256"},{"name":"feeBps","type":"uint16","internalType":"uint16"},{"name":"bidDeadline","type":"uint256","internalType":"uint256"},{"name":"maxPrice","type":"uint256","internalType":"uint256"},{"name":"deliverable","type":"bytes32","internalType":"bytes32"},{"name":"contentHash","type":"bytes32","internalType":"bytes32"},{"name":"contentURI","type":"string","internalType":"string"},{"name":"auctionSubtype","type":"bytes4","internalType":"bytes4"}],"stateMutability":"view"},{"type":"function","name":"totalFeesCollected","inputs":[],"outputs":[{"name":"","type":"uint256","internalType":"uint256"}],"stateMutability":"view"},{"type":"function","name":"transferOwnership","inputs":[{"name":"newOwner","type":"address","internalType":"address"}],"outputs":[],"stateMutability":"nonpayable"},{"type":"function","name":"trustedForwarders","inputs":[{"name":"","type":"address","internalType":"address"}],"outputs":[{"name":"","type":"bool","internalType":"bool"}],"stateMutability":"view"},{"type":"function","name":"updateTask","inputs":[{"name":"taskId","type":"bytes32","internalType":"bytes32"},{"name":"newReward","type":"uint256","internalType":"uint256"},{"name":"newExpiryTime","type":"uint256","internalType":"uint256"},{"name":"newBidDeadline","type":"uint256","internalType":"uint256"},{"name":"newPitchDeadline","type":"uint256","internalType":"uint256"}],"outputs":[],"stateMutability":"nonpayable"},{"type":"function","name":"upgradeToAndCall","inputs":[{"name":"newImplementation","type":"address","internalType":"address"},{"name":"data","type":"bytes","internalType":"bytes"}],"outputs":[],"stateMutability":"payable"},{"type":"function","name":"usdcToken","inputs":[],"outputs":[{"name":"","type":"address","internalType":"contract IERC20"}],"stateMutability":"view"},{"type":"function","name":"workerStats","inputs":[{"name":"","type":"address","internalType":"address"}],"outputs":[{"name":"completedTasks","type":"uint256","internalType":"uint256"},{"name":"ratedTasks","type":"uint256","internalType":"uint256"},{"name":"totalStars","type":"uint256","internalType":"uint256"}],"stateMutability":"view"},{"type":"event","name":"BidSubmitted","inputs":[{"name":"taskId","type":"bytes32","indexed":true,"internalType":"bytes32"},{"name":"worker","type":"address","indexed":true,"internalType":"address"},{"name":"price","type":"uint256","indexed":false,"internalType":"uint256"}],"anonymous":false},{"type":"event","name":"FeeRecipientUpdated","inputs":[{"name":"newRecipient","type":"address","indexed":false,"internalType":"address"}],"anonymous":false},{"type":"event","name":"FeesUpdated","inputs":[{"name":"newFeeBps","type":"uint16","indexed":false,"internalType":"uint16"}],"anonymous":false},{"type":"event","name":"ForwarderUpdated","inputs":[{"name":"forwarder","type":"address","indexed":true,"internalType":"address"},{"name":"trusted","type":"bool","indexed":false,"internalType":"bool"}],"anonymous":false},{"type":"event","name":"Initialized","inputs":[{"name":"version","type":"uint64","indexed":false,"internalType":"uint64"}],"anonymous":false},{"type":"event","name":"OwnershipTransferred","inputs":[{"name":"previousOwner","type":"address","indexed":true,"internalType":"address"},{"name":"newOwner","type":"address","indexed":true,"internalType":"address"}],"anonymous":false},{"type":"event","name":"ReputationRegistryUpdated","inputs":[{"name":"newRegistry","type":"address","indexed":false,"internalType":"address"}],"anonymous":false},{"type":"event","name":"StakeForfeited","inputs":[{"name":"taskId","type":"bytes32","indexed":true,"internalType":"bytes32"},{"name":"claimer","type":"address","indexed":true,"internalType":"address"},{"name":"stakeAmount","type":"uint256","indexed":false,"internalType":"uint256"}],"anonymous":false},{"type":"event","name":"StakeReturned","inputs":[{"name":"taskId","type":"bytes32","indexed":true,"internalType":"bytes32"},{"name":"claimer","type":"address","indexed":true,"internalType":"address"},{"name":"stakeAmount","type":"uint256","indexed":false,"internalType":"uint256"}],"anonymous":false},{"type":"event","name":"TaskAccepted","inputs":[{"name":"taskId","type":"bytes32","indexed":true,"internalType":"bytes32"},{"name":"requester","type":"address","indexed":true,"internalType":"address"},{"name":"worker","type":"address","indexed":true,"internalType":"address"},{"name":"workerPayment","type":"uint256","indexed":false,"internalType":"uint256"},{"name":"platformFee","type":"uint256","indexed":false,"internalType":"uint256"}],"anonymous":false},{"type":"event","name":"TaskCancelled","inputs":[{"name":"taskId","type":"bytes32","indexed":true,"internalType":"bytes32"},{"name":"requester","type":"address","indexed":true,"internalType":"address"},{"name":"refundAmount","type":"uint256","indexed":false,"internalType":"uint256"}],"anonymous":false},{"type":"event","name":"TaskClaimed","inputs":[{"name":"taskId","type":"bytes32","indexed":true,"internalType":"bytes32"},{"name":"claimer","type":"address","indexed":true,"internalType":"address"},{"name":"stakeAmount","type":"uint256","indexed":false,"internalType":"uint256"}],"anonymous":false},{"type":"event","name":"TaskCreated","inputs":[{"name":"taskId","type":"bytes32","indexed":true,"internalType":"bytes32"},{"name":"requester","type":"address","indexed":true,"internalType":"address"},{"name":"reward","type":"uint256","indexed":false,"internalType":"uint256"},{"name":"expiryTime","type":"uint256","indexed":false,"internalType":"uint256"},{"name":"mode","type":"bytes4","indexed":false,"internalType":"bytes4"}],"anonymous":false},{"type":"event","name":"TaskExpired","inputs":[{"name":"taskId","type":"bytes32","indexed":true,"internalType":"bytes32"},{"name":"requester","type":"address","indexed":true,"internalType":"address"},{"name":"refundAmount","type":"uint256","indexed":false,"internalType":"uint256"}],"anonymous":false},{"type":"event","name":"TaskRated","inputs":[{"name":"taskId","type":"bytes32","indexed":true,"internalType":"bytes32"},{"name":"worker","type":"address","indexed":true,"internalType":"address"},{"name":"rating","type":"uint8","indexed":false,"internalType":"uint8"}],"anonymous":false},{"type":"event","name":"TaskReopened","inputs":[{"name":"taskId","type":"bytes32","indexed":true,"internalType":"bytes32"}],"anonymous":false},{"type":"event","name":"TaskSubmitted","inputs":[{"name":"taskId","type":"bytes32","indexed":true,"internalType":"bytes32"},{"name":"worker","type":"address","indexed":true,"internalType":"address"},{"name":"deliverable","type":"bytes32","indexed":false,"internalType":"bytes32"}],"anonymous":false},{"type":"event","name":"TaskUpdated","inputs":[{"name":"taskId","type":"bytes32","indexed":true,"internalType":"bytes32"},{"name":"newReward","type":"uint256","indexed":false,"internalType":"uint256"},{"name":"newExpiryTime","type":"uint256","indexed":false,"internalType":"uint256"}],"anonymous":false},{"type":"event","name":"TaskWorkerSelected","inputs":[{"name":"taskId","type":"bytes32","indexed":true,"internalType":"bytes32"},{"name":"worker","type":"address","indexed":true,"internalType":"address"}],"anonymous":false},{"type":"event","name":"Upgraded","inputs":[{"name":"implementation","type":"address","indexed":true,"internalType":"address"}],"anonymous":false},{"type":"error","name":"AddressEmptyCode","inputs":[{"name":"target","type":"address","internalType":"address"}]},{"type":"error","name":"ERC1967InvalidImplementation","inputs":[{"name":"implementation","type":"address","internalType":"address"}]},{"type":"error","name":"ERC1967NonPayable","inputs":[]},{"type":"error","name":"FailedCall","inputs":[]},{"type":"error","name":"InvalidInitialization","inputs":[]},{"type":"error","name":"NotInitializing","inputs":[]},{"type":"error","name":"OwnableInvalidOwner","inputs":[{"name":"owner","type":"address","internalType":"address"}]},{"type":"error","name":"OwnableUnauthorizedAccount","inputs":[{"name":"account","type":"address","internalType":"address"}]},{"type":"error","name":"ReentrancyGuardReentrantCall","inputs":[]},{"type":"error","name":"UUPSUnauthorizedCallContext","inputs":[]},{"type":"error","name":"UUPSUnsupportedProxiableUUID","inputs":[{"name":"slot","type":"bytes32","internalType":"bytes32"}]}],"bytecode":{"object":"0x60a08060405234620000f55760017f9b779b17422d0df92223018b32b4d1fa46e071723d6817e2486d003becc55f0055306080527ff0c57e16840df040f15088dc2f81fe391c3923bec73e23a9662efc9c229c6a009081549060ff8260401c16620000e657506001600160401b036002600160401b031982821601620000a0575b6040516148c89081620000fa82396080518181816127f201526128aa0152f35b6001600160401b031990911681179091556040519081527fc7f505b2f371ae2175ee4913f4499e1f2633a7b5936321eed1cdaeb6115181d290602090a15f808062000080565b63f92ee8a960e01b8152600490fd5b5f80fdfe610120806040526004361015610013575f80fd5b5f905f3560e01c90816301ffc9a71461376e5750806311eac8551461374757806315a290351461343e5780631c8e57f81461341c5780631e52fce714612c41578063365ba2dd14612bbc5780633f0ce71414612b505780634488b65214612ae05780634690484014612ab45780634d93172d14612a495780634f1ef2861461285c57806352d1902d146127e0578063537da21f146125f357806354776bb9146125b6578063572b6c05146125b65780635c41d2fe146124fd57806360c6d8ae146124e057806363326459146124be57806363779c741461249c578063715018a61461243557806373d74876146124135780637ebef529146122345780638c58d5fc146120de5780638da5cb5b146120aa57806391dc1d3014611ee35780639d4f988b14611e0a5780639f63f2a614611dd2578063a6eecb7214611d80578063a86592ba14611c20578063ad3cb1cc14611bd7578063ae2925a61461174d578063aeb87ecf146111b3578063afdc54cd14610f53578063b2b7bdd514610f31578063bcae25a414610f10578063c104d24d14610eee578063c8db44e314610ec6578063cc3e049b14610e8f578063ce37a26314610d26578063d081f2b814610d04578063d864887114610cda578063db7260bc14610aa3578063e48a3a6014610a54578063e579f500146108b7578063e74b981b146107f7578063ec7b92e214610483578063ee8ca3b5146102ba578063f152d32514610297578063f2fde38b1461026a5763fe78aecf14610245575f80fd5b34610267578060031936011261026757604051633c948d2360e01b8152602090f35b80fd5b503461026757602036600319011261026757610294610287613851565b61028f6145ab565b6144bc565b80f35b503461026757806003193601126102675760405163687b54cd60e01b8152602090f35b5034610267576020908160031936011261026757610332600435338352600184526102eb60ff604085205416613a64565b6102f36145e3565b6102fb61452d565b818452600285526040842060018101805491966001600160a01b039283169590938690849061032b831515613b16565b1614613c91565b60068701805460ff8116600781101561046f57988592600660039361035d6103c09a9b9c9d15613b9a565b8c60d082901b6001600160e01b0319166334b1f22560e21b14610454575b5060ff19161790550154885460405163a9059cbb60e01b81526001600160a01b0390991660048a015260248901829052909795869185169082908b9082906044820190565b03925af1938415610449577f9954d6823ea6810a4780ffb920d7c2a569d41b2d0c99ea5d9314f8ba805de4bc946103fe91899161041c575b50613f0a565b541693604051908152a360015f805160206148538339815191525580f35b61043c9150853d8711610442575b61043481836138cf565b810190613d13565b5f6103f8565b503d61042a565b6040513d89823e3d90fd5b6040818d610469935260058952205415613ccd565b8c61037b565b634e487b7160e01b89526021600452602489fd5b50346107215760a03660031901126107215760ff6024351660243503610721576064356001600160401b038111610721576104c2903690600401613824565b90335f5260016020526104db60ff60405f205416613a64565b6104e361452d565b6004355f90815260026020526040902060018101549091610511916001600160a01b03918216911614613c91565b600681015460ff811660078110156107e3576004036107aa57606460ff602435161161076e5760081c60ff166107395760068101805461ff00191660243560081b61ff00161790556002810180546001600160a01b03165f908152600360205260409020600101805461058390613aa8565b905560018060a01b038154165f526003602052600260405f20016105ad60ff602435168254613aca565b905560018060a01b0390541660405160ff6024351681527f43e0363b77262507a674e16a9e166e954aa44328ef61de189725cd19846fb90d602060043592a3604435151580610725575b6105ff578380f35b6008546006909101546001600160a01b03919091169061062b9060d01b6001600160e01b031916614612565b90803b15610721576106a85f604086948296825198899788968794631e01b53f60e11b8652604435600487015260ff60243516600f0b60248701528760448701526101006064870152600f6101048701526e746d702e7461736b2e726174696e6760881b61012487015261014060848701526101448601906137e6565b92601c858503600319810160a48801528886520160c486015281602085015285840137818101840185905260843560e4840152601f01601f1916010301925af16106f3575b80808380f35b90506001600160401b03811161070d576040525f806106ed565b634e487b7160e01b5f52604160045260245ffd5b5f80fd5b506008546001600160a01b031615156105f7565b60405162461bcd60e51b815260206004820152600d60248201526c105b1c9958591e481c985d1959609a1b6044820152606490fd5b60405162461bcd60e51b81526020600482015260146024820152730526174696e67206d75737420626520302d3130360641b6044820152606490fd5b60405162461bcd60e51b815260206004820152601160248201527015185cdac81b9bdd081858d8d95c1d1959607a1b6044820152606490fd5b634e487b7160e01b5f52602160045260245ffd5b3461072157602036600319011261072157610810613851565b6108186145ab565b6001600160a01b03811690811561087e576006805462010000600160b01b03191660109290921b62010000600160b01b03169190911790556040519081527f7a7b5a0a132f9e0581eb8527f66eae9ee89c2a3e79d4ac7e41a1f1f4d48a7fc290602090a1005b60405162461bcd60e51b8152602060048201526011602482015270125b9d985b1a59081c9958da5c1a595b9d607a1b6044820152606490fd5b34610721576020366003190112610721576004355f52600260205260405f20808054600160a01b600190038060018401541660e052806002840154166101005260038301549060048401549060058501549060068601549060078701549060088801541690600988015492600a89015494600b8a015461ffff1696600c8b015498600d8c01549a600e8d01549c600f01549d60108101610956906139c2565b6080526011015460e01b60a05260405160c05260c0515260e05160c051602001526101005160c0516040015260c0516060015260c0516080015260c05160a0015260c05160c00160ff8216906109ab916137d9565b8060081c60ff1660c05160e0015263ffffffff60e01b9060d01b1660c051610100015260c051610120015260c051610140015260c051610160015260c051610180015260c0516101a0015260c0516101c0015260c0516101e0015260c051610200015260c051610220015260c05161024001610280905260c0516102800160805190610a36916137e6565b63ffffffff60e01b60a0511660c051610260015260c051900360c051f35b34610721576020366003190112610721576001600160a01b03610a75613851565b165f526003602052606060405f20805490600260018201549101549060405192835260208301526040820152f35b346107215760403660031901126107215760043560243590335f526001602052610ad360ff60405f205416613a64565b610adb61452d565b5f82815260026020526040902060018101546001600160a01b0390610b039082161515613b16565b610b136005830154421115613c56565b600e82018054610c95578590556006820180549093909260d084901b6001600160e01b03191663a81913a560e01b81148015610c85575b15610b8f57505060ff83169360078510156107e3576003602094610b7c5f805160206148738339815191529715613b9a565b60ff19161790555b6040519586521693a3005b9194509290631e61f6a360e31b8103610be4575060ff169260078410156107e357610bdf826008602095610bd360015f805160206148738339815191529914613dab565b01541683831614613dea565b610b84565b91929163ec07e9d360e01b8114908115610c74575b50610c18575b50506020905f8051602061487383398151915292610b84565b60ff169290919060078410156107e357610c60826002602095610c5488835f805160206148738339815191529a14908115610c69575b50613d69565b01541683831614613d2b565b92819250610bff565b60019150148c610c4e565b6334b1f22560e21b14905087610bf9565b5063687b54cd60e01b8114610b4a565b60405162461bcd60e51b815260206004820152601760248201527f44656c6976657261626c6520616c7265616479207365740000000000000000006044820152606490fd5b34610721576020366003190112610721576004355f526004602052602060405f2054604051908152f35b34610721575f3660031901126107215760405163a81913a560e01b8152602090f35b3461072157604036600319011261072157600435610d42613867565b90335f526001602052610d5b60ff60405f205416613a64565b610d6361452d565b5f82815260026020526040902060018101546001600160a01b0392610d8d91841690841614613c91565b60068101805490926313f8162d60e01b60d083901b6001600160e01b03191601610e575760ff821660078110156107e357610dc89015613c15565b600a8301544211610e1a576002809301951694856001600160601b0360a01b82541617905560ff19161790557f8259e46acb41c409f7763c24e2f5dba1221be1944b6960acbfaf4ee07ea8de1e5f80a3005b60405162461bcd60e51b8152602060048201526015602482015274141a5d18da08191958591b1a5b99481c185cdcd959605a1b6044820152606490fd5b60405162461bcd60e51b815260206004820152601060248201526f4e6f742061205069746368207461736b60801b6044820152606490fd5b3461072157602036600319011261072157610ea86145e3565b610eb3600435613f46565b60015f8051602061485383398151915255005b34610721575f366003190112610721576008546040516001600160a01b039091168152602090f35b34610721575f366003190112610721576040516310cf2d7f60e01b8152602090f35b34610721575f36600319011261072157602061ffff60065416604051908152f35b34610721575f366003190112610721576040516360ce192b60e11b8152602090f35b34610721576020806003193601126107215760043590335f5260018152610f8060ff60405f205416613a64565b610f8861452d565b5f8381526002835260409020600181015490916001600160a01b0391610fb391831690831614613c91565b600682019060ff8254610fda631e61f6a360e31b63ffffffff60e01b8360d01b1614613bd6565b1660078110156107e3576001610ff09114613dab565b6005830154421115611177576007830193845491865f52600482528260405f205582611064575b835460ff191684556008850180546001600160a01b03191690555f6009860181905580875587907fae5c872b4498d8e857e43522a12d5dfde96a0d5089787500d6495dade8e994fa9080a2005b5f805460065460405163a9059cbb60e01b815260109190911c84166001600160a01b0316600482015260248101869052918491839160449183919087165af190811561116c575f9161114f575b501561110a579282877fb18ae0fffd2ad14984107b582c2dec2fb6effb8bf06d43a59dd102d88d5a3e935f98979489976110ef600998600754613aca565b60075560088701541693604051908152a39281949550611017565b60405162461bcd60e51b815260048101839052601760248201527f466f7266656974207472616e73666572206661696c65640000000000000000006044820152606490fd5b6111669150833d85116104425761043481836138cf565b886110b1565b6040513d5f823e3d90fd5b60405162461bcd60e51b815260048101859052601460248201527315185cdac81b9bdd081e595d08195e1c1a5c995960621b6044820152606490fd5b34610721576040366003190112610721576111cc613867565b335f5260016020526111e460ff60405f205416613a64565b6111ec6145e3565b6111f461452d565b6004355f908152600260205260409020600181015490926001600160a01b0392831692909161122591168314613c91565b6112356005840154421115613c56565b6006830154631e61f6a360e31b9060d081901b6001600160e01b031916828103611656575060ff81169060078210156107e357611276600160049314613dab565b6008860154611292906001600160a01b03868116911614613dea565b60ff19161760068501556002840180546001600160a01b0319166001600160a01b0384169081179091555f81815260036020526040902080549195916112d790613aa8565b9055600681015460d01b6001600160e01b0319166334b1f22560e21b0361164b576007810154915b611360602061132461271061131c61ffff600b8801541688613e2f565b048096613d06565b5f805460405163a9059cbb60e01b81526001600160a01b03998a1660048201526024810184905292989294859390911691839182906044820190565b03925af1801561116c5761137b915f9161162c575b50613e42565b826115a3575b600682015460d01b6001600160e01b0319161480611596575b6114d9575b600681015460d01b6001600160e01b0319166334b1f22560e21b14611406575b5060405191825260208201527f46c82fee4cedc2a273b6dc93ed59039d9208122b933b8f32bd87a0034e336a97604060043592a460015f8051602061485383398151915255005b611419600d820154600783015490613d06565b9081611426575b506113bf565b5f80546001929092015460405163a9059cbb60e01b81526001600160a01b039182166004820152602481019490945260209284926044928492165af190811561116c575f916114ba575b501561147d578480611420565b60405162461bcd60e51b8152602060048201526015602482015274105d58dd1a5bdb881c99599d5b990819985a5b1959605a1b6044820152606490fd5b6114d3915060203d6020116104425761043481836138cf565b85611470565b5f80546008830154600784015460405163a9059cbb60e01b81526001600160a01b039283166004820152602481019190915292602092849260449284929091165af1801561116c57611532915f91611577575b50613ec8565b60018060a01b0360088201541660078201546040519081527ffbf073a7709bd64bf3406dfd536abdbc9a3750eb99c8f26f543768c24a237b07602060043592a361139f565b611590915060203d6020116104425761043481836138cf565b8761152c565b506007810154151561139a565b5f805460065460405163a9059cbb60e01b81526001600160a01b0360109290921c821660048201526024810187905292602092849260449284929091165af1801561116c576115f9915f9161160d575b50613e86565b61160583600754613aca565b600755611381565b611626915060203d6020116104425761043481836138cf565b886115f3565b611645915060203d6020116104425761043481836138cf565b88611375565b6003810154916112ff565b63ec07e9d360e01b81036116a2575060ff81169060078210156107e357611681600260049314613d69565b600286015461169d906001600160a01b03868116911614613d2b565b611292565b6334b1f22560e21b0361171e5760ff811660078110156107e3576001036116e35760028501546004919061169d906001600160a01b03868116911614613d2b565b60405162461bcd60e51b815260206004820152601360248201527215da5b9b995c881b9bdd081cd95b1958dd1959606a1b6044820152606490fd5b60ff81169060078210156107e35761169d8260049315908115611742575b50613c15565b60039150148861173c565b346107215760a036600319011261072157335f52600160205261177660ff60405f205416613a64565b61177e6145e3565b61178661452d565b6004355f52600260205260405f20906117c160018060a01b0360018401541680926117b2821515613b16565b6001600160a01b031614613c91565b600682015460ff811660078110156107e3576117dd9015613b9a565b60d01b6001600160e01b0319166334b1f22560e21b14611bba575b600382015460058301546024351515928380611bae575b611aa2575b50604435611a46575b6064351515908180611a25575b6119c9575b60843515159283806119a8575b61194d575b84611940575b50831561191a575b5082156118e9575b5081156118ba575b506118775760015f8051602061485383398151915255005b6005600382015491015460405191825260208201527fd1530ce534a8c2beaea77a65ae6ad931e29c84727381c531cdfb47f2889ebe63604060043592a280610eb3565b9050806118c8575b8261185f565b50600681015460d01b6001600160e01b03191663ec07e9d360e01b146118c2565b909150806118f9575b9083611857565b50600682015460d01b6001600160e01b0319166334b1f22560e21b146118f2565b909250604435151590604435611933575b50918461184f565b905060443514158461192b565b6024351415935085611847565b42608435111561196457608435600a870155611841565b606460405162461bcd60e51b815260206004820152602060248201527f506974636820646561646c696e65206d75737420626520696e206675747572656044820152fd5b50600686015460d01b6001600160e01b03191663ec07e9d360e01b1461183c565b4260643511156119e057606435600c86015561182f565b60405162461bcd60e51b815260206004820152601e60248201527f42696420646561646c696e65206d75737420626520696e2066757475726500006044820152606490fd5b50600685015460d01b6001600160e01b0319166334b1f22560e21b1461182a565b426044351115611a5d57604435600585015561181d565b60405162461bcd60e51b815260206004820152601860248201527f457870697279206d75737420626520696e2066757475726500000000000000006044820152606490fd5b826024351115611ae9575b506024356003850155600684015460d01b6001600160e01b0319166334b1f22560e21b14611adc575b84611814565b602435600d850155611ad6565b6020611b3791611afb60243586613d06565b5f805460405163a9059cbb60e01b81526001600160a01b0394851660048201526024810193909352919485939092169183919082906044820190565b03925af190811561116c575f91611b8f575b5015611b555784611aad565b60405162461bcd60e51b81526020600482015260126024820152711554d110c81c99599d5b990819985a5b195960721b6044820152606490fd5b611ba8915060203d6020116104425761043481836138cf565b85611b49565b5082602435141561180f565b6004355f526005602052611bd260405f205415613ccd565b6117f8565b34610721575f36600319011261072157611c1c604051611bf6816138b4565b60058152640352e302e360dc1b60208201526040519182916020835260208301906137e6565b0390f35b3461072157611c2e36613935565b90335f526001602052611c4760ff60405f205416613a64565b611c4f61452d565b815f52600260205260405f209260018060a01b03611c74816001870154161515613b16565b6006850180549092611c9c60d083901b6001600160e01b0319166334b1f22560e21b14613b58565b60ff821660078110156107e357611cb39015613b9a565b600d8701548111611d3b57859360016020938360077f50fe806ad7090c0b4c89850edc7f5f0619df0b894aa98735d1d54c60548bf2869760028d019a169b8c9a8b6001600160601b0360a01b825416179055015560ff1916179055604051908152a37f8259e46acb41c409f7763c24e2f5dba1221be1944b6960acbfaf4ee07ea8de1e5f80a3005b60405162461bcd60e51b815260206004820152601760248201527f50726963652065786365656473206d61782070726963650000000000000000006044820152606490fd5b3461072157611d8e36613935565b905f52600560205260405f2090815481101561072157611dad91613971565b508054600190910154604080516001600160a01b039093168352602083019190915290f35b34610721576020366003190112610721576001600160a01b03611df3613851565b165f526009602052602060405f2054604051908152f35b3461072157602080600319360112610721576004355f526005815260405f209081546001600160401b03811161070d5760405190611e4d838260051b01836138cf565b80825282820180945f52835f205f915b838310611eb0576040805187815286518189018190528992820190895f5b828110611e885784840385f35b855180516001600160a01b031685528201518483015294810194604090930192600101611e7b565b600286600192604051611ec2816138b4565b848060a01b0386541681528486015483820152815201920192019190611e5d565b3461072157611ef136613935565b90335f5260209160018352611f0c60ff60405f205416613a64565b611f1461452d565b92825f526002815260405f209160018060a01b0392611f3a846001830154161515613b16565b600681015460ff90611f6260d082901b6001600160e01b0319166334b1f22560e21b14613b58565b1660078110156107e357611f769015613b9a565b600c81015442101561206f57600d0154811161203257835f526005825260405f208360405196611fa5886138b4565b16958681528381019183835280546801000000000000000081101561070d57611fd391600182018155613971565b92909261201f577f50fe806ad7090c0b4c89850edc7f5f0619df0b894aa98735d1d54c60548bf2869560019251166001600160601b0360a01b84541617835551910155604051908152a3005b634e487b7160e01b5f525f60045260245ffd5b60405162461bcd60e51b81526004810183905260156024820152744269642065786365656473206d617820707269636560581b6044820152606490fd5b60405162461bcd60e51b8152600481018490526013602482015272109a5908191958591b1a5b99481c185cdcd959606a1b6044820152606490fd5b34610721575f366003190112610721575f80516020614833833981519152546040516001600160a01b039091168152602090f35b34610721576120ec36613935565b90335f52600160205261210560ff60405f205416613a64565b61210d6145e3565b61211561452d565b5f82815260026020526040902060018101549093916001600160a01b03916121409083161515613b16565b169283156121fe57600681018054929061217060d085901b6001600160e01b031916631e61f6a360e31b14613bd6565b60ff841660078110156107e3577f0c94d586dd5b832830019d8f427e4aa13e8ddbbf614cc0817a6b8dd9c5ae24be948360076020966121b160019515613c15565b6121c16005820154421115613c56565b6008810180546001600160a01b0319168c179055426009820155015560ff1916179055604051908152a360015f8051602061485383398151915255005b60405162461bcd60e51b815260206004820152600e60248201526d24b73b30b634b2103bb7b935b2b960911b6044820152606490fd5b346107215760603660031901126107215761224d613851565b612255613867565b9060443561ffff8116809103610721577ff0c57e16840df040f15088dc2f81fe391c3923bec73e23a9662efc9c229c6a009283549260ff8460401c1615936001600160401b0381168015908161240b575b6001149081612401575b1590816123f8575b506123e65767ffffffffffffffff1981166001178655846123c7575b506122dd614760565b6122e5614760565b6122ee336144bc565b6001600160a01b03908282161561238a5761230d612710851115613ad7565b166001600160601b0360a01b5f5416175f556006549062010000600160b01b039060101b169069ffffffffffffffffffff60b01b16171760065561234d57005b68ff00000000000000001981541690557fc7f505b2f371ae2175ee4913f4499e1f2633a7b5936321eed1cdaeb6115181d2602060405160018152a1005b60405162461bcd60e51b8152602060048201526015602482015274125b9d985b1a5908199959481c9958da5c1a595b9d605a1b6044820152606490fd5b68ffffffffffffffffff191668010000000000000001178555856122d4565b60405163f92ee8a960e01b8152600490fd5b905015876122b8565b303b1591506122b0565b8691506122a6565b34610721575f36600319011261072157604051631e61f6a360e31b8152602090f35b34610721575f3660031901126107215761244d6145ab565b5f8051602061483383398151915280546001600160a01b031981169091555f906001600160a01b03167f8be0079c531659141344cd1fd0a4f28419497f9722a3daafe3b4186f6b6457e08280a3005b34610721575f366003190112610721576040516334b1f22560e21b8152602090f35b34610721575f3660031901126107215760405163ec07e9d360e01b8152602090f35b34610721575f366003190112610721576020600754604051908152f35b3461072157602036600319011261072157612516613851565b61251e6145ab565b6001600160a01b0316801561257157805f52600160205260405f20600160ff198254161790557f8cc3357993414364e6add1411f4853a44efd6c6a279b45a373ad4376d9ea1262602060405160018152a2005b60405162461bcd60e51b815260206004820152601960248201527f496e76616c696420666f727761726465722061646472657373000000000000006044820152606490fd5b34610721576020366003190112610721576001600160a01b036125d7613851565b165f526001602052602060ff60405f2054166040519015158152f35b346107215760208060031936011261072157600435335f5260019182815261262160ff60405f205416613a64565b5f8281526002825260409020838101546001600160a01b039491906126499086161515613b16565b6006810180549093909161267360d084901b6001600160e01b0319166334b1f22560e21b14613b58565b60ff831660078110156107e35761268a9015613b9a565b600c810154421061279b57855f526005825260405f209687549283156127635750846126b58961394b565b50015492816126c38a61394b565b50541698865b82811061271d575050506002820180546001600160a01b0319169890911697881790556007015560ff19161790557f8259e46acb41c409f7763c24e2f5dba1221be1944b6960acbfaf4ee07ea8de1e5f80a3005b85886127298385613971565b50015410612739575b87016126c9565b99509350856127488a86613971565b5001549386836127588c84613971565b5054169a9050612732565b6064906040519062461bcd60e51b825260048201526011602482015270139bc8189a591cc81cdd589b5a5d1d1959607a1b6044820152fd5b60405162461bcd60e51b815260048101839052601760248201527f42696420646561646c696e65206e6f74207061737365640000000000000000006044820152606490fd5b34610721575f366003190112610721577f00000000000000000000000000000000000000000000000000000000000000006001600160a01b0316300361284a5760206040517f360894a13ba1a3210667c828492db98dca3e2076cc3735a920a3ca505d382bbc8152f35b60405163703e46dd60e11b8152600490fd5b604036600319011261072157612870613851565b6024356001600160401b0381116107215736602382011215610721576128a09036906024816004013591016138f0565b6001600160a01b037f00000000000000000000000000000000000000000000000000000000000000008116308114908115612a1b575b5061284a576128e36145ab565b8216916040516352d1902d60e01b8152602081600481875afa5f91816129e7575b5061292257604051634c9c8ce360e01b815260048101859052602490fd5b7f360894a13ba1a3210667c828492db98dca3e2076cc3735a920a3ca505d382bbc908181036129cf5750813b156129b65780546001600160a01b03191684179055604051927fbc7cd75a20ee27fd9adebab32041f755214dbc6bffa90cc0225b39da2e5c2d3b5f80a281511561299e5761299c92506147a1565b005b5050346129a757005b63b398979f60e01b8152600490fd5b604051634c9c8ce360e01b815260048101859052602490fd5b60249060405190632a87526960e21b82526004820152fd5b9091506020813d602011612a13575b81612a03602093836138cf565b8101031261072157519085612904565b3d91506129f6565b9050817f360894a13ba1a3210667c828492db98dca3e2076cc3735a920a3ca505d382bbc54161415846128d6565b3461072157602036600319011261072157612a62613851565b612a6a6145ab565b6001600160a01b03165f818152600160209081526040808320805460ff19169055519182527f8cc3357993414364e6add1411f4853a44efd6c6a279b45a373ad4376d9ea126291a2005b34610721575f3660031901126107215760065460405160109190911c6001600160a01b03168152602090f35b346107215760203660031901126107215760043561ffff81168091036107215760207fb50f6c85631b448ef50a9b0055afaff00e6d81ec0ebf056cd4bef2d8b32dbbbc91612b2c6145ab565b612b3a612710821115613ad7565b8061ffff196006541617600655604051908152a1005b34610721576020366003190112610721577fae9f27c36d3aa52eba3f1db0e15d93fd0981a7ba056f20bed382a145202a301d6020612b8c613851565b612b946145ab565b600880546001600160a01b0319166001600160a01b03929092169182179055604051908152a1005b3461072157602036600319011261072157612bd5613851565b5f60408051612be381613899565b828152826020820152015260018060a01b03165f526003602052606060405f20604051612c0f81613899565b815491828252604060026001830154926020850193845201549201918252604051928352516020830152516040820152f35b3461072157610100366003190112610721576044356001600160e01b0319811681036107215760c4356001600160401b03811161072157612c86903690600401613824565b9060e4356001600160e01b03198116900361072157335f526001602052612cb360ff60405f205416613a64565b6001600160a01b03612cc361452d565b169081156133e3576004351561339e5760243515613359576001600160e01b0319841663a81913a560e01b14801561333f575b8015613325575b801561330b575b80156132f1575b156132bd576001600160e01b031984166334b1f22560e21b146131f5575b815f52600960205260405f20805490612d4182613aa8565b9055604051904660208301523060408301528360608301526080820152608081528060a08101106001600160401b0360a08301111761070d5760a081016040526020815191012092612eb3612d9860243542613aca565b926001600160e01b0319871663ec07e9d360e01b036131ee57612dbd60643542613aca565b925b60065461ffff166001600160e01b031989166334b1f22560e21b036131e857612dea60843542613aca565b6001600160e01b03198a166334b1f22560e21b036131e157600435915b6001600160e01b03198b166334b1f22560e21b036131da5760e435965b60405198612e318a61387d565b8b8a528a60208b01525f60408b015260043560608b01524260808b015260a08a01525f60c08a01525f60e08a015263ffffffff60e01b8c166101008a01525f6101208a01525f6101408a01525f6101608a01526101808901526101a08801526101c08701526101e08601525f61020086015260a43561022086015236916138f0565b61024083015263ffffffff60e01b16610260820152825f52600260205260405f20815181556001810160018060a01b036020840151166001600160601b0360a01b8254161790556002810160018060a01b036040840151166001600160601b0360a01b825416179055606082015160038201556080820151600482015560a0820151600582015560c082015160078110156107e35760068201805460e085015161010086015165ffffffffffff1990921660ff9490941693909317600893841b61ff00161760d09190911c65ffffffff000016179055610120830151600783015561014083015190820180546001600160a01b0319166001600160a01b03929092169190911790556101608201516009820155610180820151600a8201556101a0820151600b8201805461ffff191661ffff929092169190911790556101c0820151600c8201556101e0820151600d820155610200820151600e820155610220820151600f8201556102408201518051906001600160401b03821161070d5761303f601084015461398a565b601f8111613192575b5091859391602097938890601f83116001146130fa577fbdfc881a16a3a04e41fed1091f413ffc0872156818c3b19a8331a07a020ca69095938360609694610260946011945f926130ef575b50508160011b915f199060031b1c19161760108201555b0191015160e01c63ffffffff198254161790556130ca60243542613aca565b906040519160043583528883015263ffffffff60e01b166040820152a3604051908152f35b015190508d80613094565b90601084015f52895f20915f5b601f1985168110613178575093600184610260946011947fbdfc881a16a3a04e41fed1091f413ffc0872156818c3b19a8331a07a020ca6909a9860609a98601f19811610613160575b505050811b0160108201556130ab565b01515f1960f88460031b161c191690558d8080613150565b8183015184558a9850600190930192918b01918b01613107565b601084015f5260205f20601f840160051c810191602085106131d0575b601f0160051c01905b8181106131c55750613048565b5f81556001016131b8565b90915081906131af565b5f96612e24565b5f91612e07565b5f612dea565b5f92612dbf565b60e4356001600160e01b031916633c948d2360e01b1480156132a1575b8015613285575b8015613269575b612d295760405162461bcd60e51b815260206004820152601760248201527f496e76616c69642061756374696f6e20737562747970650000000000000000006044820152606490fd5b5060e4356001600160e01b0319166310cf2d7f60e01b14613220565b5060e4356001600160e01b03191663e1022c5b60e01b14613219565b5060e4356001600160e01b0319166360ce192b60e11b14613212565b60405162461bcd60e51b815260206004820152600c60248201526b496e76616c6964206d6f646560a01b6044820152606490fd5b506001600160e01b031984166334b1f22560e21b14612d0b565b506001600160e01b0319841663687b54cd60e01b14612d04565b506001600160e01b0319841663ec07e9d360e01b14612cfd565b506001600160e01b03198416631e61f6a360e31b14612cf6565b60405162461bcd60e51b815260206004820152601f60248201527f4475726174696f6e206d7573742062652067726561746572207468616e2030006044820152606490fd5b60405162461bcd60e51b815260206004820152601d60248201527f526577617264206d7573742062652067726561746572207468616e20300000006044820152606490fd5b60405162461bcd60e51b815260206004820152601160248201527024b73b30b634b2103932b8bab2b9ba32b960791b6044820152606490fd5b34610721575f3660031901126107215760405163e1022c5b60e01b8152602090f35b34610721576020366003190112610721575f61026060405161345f8161387d565b8281528260208201528260408201528260608201528260808201528260a08201528260c08201528260e08201528261010082015282610120820152826101408201528261016082015282610180820152826101a0820152826101c0820152826101e08201528261020082015282610220820152606061024082015201526004355f52600260205260405f20604051906134f78261387d565b8054825260018101546001600160a01b03908116602084015260028201541660408301526003810154606083015260048101546080830152600581015460a0830152600681015490600760ff831610156107e35760ff80831660c0850152600883811c90911660e085015260d09290921b6001600160e01b0319166101008401526007810154610120840152908101546001600160a01b03166101408301526009810154610160830152600a810154610180830152600b81015461ffff166101a0830152600c8101546101c0830152600d8101546101e0830152600e810154610200830152600f8101546102208301526011906135f6601082016139c2565b610240840152015460e01b63ffffffff60e01b166102608201526040518091602082528051602083015260018060a01b03602082015116604083015260018060a01b03604082015116606083015260608101516080830152608081015160a083015260a081015160c083015261367460c082015160e08401906137d9565b60ff60e08201511661010083015263ffffffff60e01b6101008201511661012083015261012081015161014083015260018060a01b03610140820151166101608301526101608101516101808301526101808101516101a083015261ffff6101a0820151166101c08301526101c08101516101e08301526101e081015161020083015261020081015161022083015261022081015161024083015261024081015161372e61028091826102608601526102a08501906137e6565b610260909201516001600160e01b031916908301520390f35b34610721575f366003190112610721575f546040516001600160a01b039091168152602090f35b34610721576020366003190112610721576004359063ffffffff60e01b821680920361072157602091636824460560e01b81149081156137c8575b81156137b7575b5015158152f35b6301ffc9a760e01b149050836137b0565b63c8db44e360e01b811491506137a9565b9060078210156107e35752565b91908251928382525f5b848110613810575050825f602080949584010152601f8019910116010190565b6020818301810151848301820152016137f0565b9181601f84011215610721578235916001600160401b038311610721576020838186019501011161072157565b600435906001600160a01b038216820361072157565b602435906001600160a01b038216820361072157565b61028081019081106001600160401b0382111761070d57604052565b606081019081106001600160401b0382111761070d57604052565b604081019081106001600160401b0382111761070d57604052565b90601f801991011681019081106001600160401b0382111761070d57604052565b9291926001600160401b03821161070d5760405191613919601f8201601f1916602001846138cf565b829481845281830111610721578281602093845f960137010152565b6040906003190112610721576004359060243590565b80541561395d575f5260205f20905f90565b634e487b7160e01b5f52603260045260245ffd5b805482101561395d575f5260205f209060011b01905f90565b90600182811c921680156139b8575b60208310146139a457565b634e487b7160e01b5f52602260045260245ffd5b91607f1691613999565b9060405191825f82546139d48161398a565b908184526020946001916001811690815f14613a425750600114613a04575b505050613a02925003836138cf565b565b5f90815285812095935091905b818310613a2a575050613a0293508201015f80806139f3565b85548884018501529485019487945091830191613a11565b92505050613a0294925060ff191682840152151560051b8201015f80806139f3565b15613a6b57565b60405162461bcd60e51b81526020600482015260156024820152742737ba103a393ab9ba32b2103337b93bb0b93232b960591b6044820152606490fd5b5f198114613ab65760010190565b634e487b7160e01b5f52601160045260245ffd5b91908201809211613ab657565b15613ade57565b60405162461bcd60e51b815260206004820152601060248201526f08ccaca4084a0a640e8dede40d0d2ced60831b6044820152606490fd5b15613b1d57565b60405162461bcd60e51b815260206004820152601360248201527215185cdac8191bd95cc81b9bdd08195e1a5cdd606a1b6044820152606490fd5b15613b5f57565b60405162461bcd60e51b81526020600482015260136024820152724e6f7420616e2041756374696f6e207461736b60681b6044820152606490fd5b15613ba157565b60405162461bcd60e51b815260206004820152600d60248201526c2a30b9b5903737ba1037b832b760991b6044820152606490fd5b15613bdd57565b60405162461bcd60e51b815260206004820152601060248201526f4e6f74206120436c61696d207461736b60801b6044820152606490fd5b15613c1c57565b60405162461bcd60e51b81526020600482015260126024820152715461736b206e6f7420617661696c61626c6560701b6044820152606490fd5b15613c5d57565b60405162461bcd60e51b815260206004820152600c60248201526b15185cdac8195e1c1a5c995960a21b6044820152606490fd5b15613c9857565b60405162461bcd60e51b815260206004820152600d60248201526c2737ba103932b8bab2b9ba32b960991b6044820152606490fd5b15613cd457565b60405162461bcd60e51b815260206004820152600a602482015269109a591cc8195e1a5cdd60b21b6044820152606490fd5b91908203918211613ab657565b90816020910312610721575180151581036107215790565b15613d3257565b60405162461bcd60e51b815260206004820152600f60248201526e0aedee4d6cae440dad2e6dac2e8c6d608b1b6044820152606490fd5b15613d7057565b60405162461bcd60e51b815260206004820152601360248201527215dbdc9ad95c881b9bdd081cd95b1958dd1959606a1b6044820152606490fd5b15613db257565b60405162461bcd60e51b815260206004820152601060248201526f15185cdac81b9bdd0818db185a5b595960821b6044820152606490fd5b15613df157565b60405162461bcd60e51b81526020600482015260166024820152752bb7b935b2b91036bab9ba1031329031b630b4b6b2b960511b6044820152606490fd5b81810292918115918404141715613ab657565b15613e4957565b60405162461bcd60e51b815260206004820152601560248201527415dbdc9ad95c881c185e5b595b9d0819985a5b1959605a1b6044820152606490fd5b15613e8d57565b60405162461bcd60e51b8152602060048201526013602482015272119959481d1c985b9cd9995c8819985a5b1959606a1b6044820152606490fd5b15613ecf57565b60405162461bcd60e51b815260206004820152601360248201527214dd185ad9481c995d1d5c9b8819985a5b1959606a1b6044820152606490fd5b15613f1157565b60405162461bcd60e51b815260206004820152600d60248201526c1499599d5b990819985a5b1959609a1b6044820152606490fd5b805f52600260205260405f209060018201613f6b60018060a01b038254161515613b16565b6005830154421115614484576006830192835460ff811660078110156107e3576004811461444757600681146144115760d082901b6001600160e01b0319166334b1f22560e21b149081614406575b506141865750835460ff1916600517845560038101545f8054845460405163a9059cbb60e01b81526001600160a01b0391821660048201526024810185905293979392602092849260449284929091165af1801561116c57614022915f9161416d5750613f0a565b5460d01b6001600160e01b031916631e61f6a360e31b1480614160575b61407e575b50546040519283526001600160a01b0316917fe4ec5a16418560274520eb1bbcfc0e4377564571957fcc2f8e2a7f44afba10de90602090a3565b5f80546008830180546007909401805460405163a9059cbb60e01b81526001600160a01b03968716600482015260248101919091529591949193909260209287926044928492165af192831561116c577ffbf073a7709bd64bf3406dfd536abdbc9a3750eb99c8f26f543768c24a237b076020879261412682977fe4ec5a16418560274520eb1bbcfc0e4377564571957fcc2f8e2a7f44afba10de995f916141435750613ec8565b5493546040519081526001600160a01b0390941693a39150614044565b61415a9150843d86116104425761043481836138cf565b5f61152c565b506007810154151561403f565b61043c915060203d6020116104425761043481836138cf565b909291600784019384549560046141b36127106141ab61ffff600b870154168b613e2f565b048099613d06565b9460ff1916179055600281019460018060a01b038654165f52600360205260405f206141df8154613aa8565b905583614393575b86614300575b60036141fd920154905490613d06565b8061424a575b505492546040805192835260208301959095526001600160a01b03908116949316927f46c82fee4cedc2a273b6dc93ed59039d9208122b933b8f32bd87a0034e336a9791a4565b5f8054835460405163a9059cbb60e01b81526001600160a01b03918216600482015260248101949094526020928492604492849291165af190811561116c575f916142e1575b501561429c575f614203565b60405162461bcd60e51b815260206004820152601760248201527f52657175657374657220726566756e64206661696c65640000000000000000006044820152606490fd5b6142fa915060203d6020116104425761043481836138cf565b5f614290565b5f805460065460405163a9059cbb60e01b81526001600160a01b0360109290921c82166004820152602481018b90529492602092869260449284929091165af190811561116c5761435d6003926141fd955f916143745750613e86565b61436989600754613aca565b6007559250506141ed565b61438d915060203d6020116104425761043481836138cf565b5f6115f3565b5f8054875460405163a9059cbb60e01b81526001600160a01b0391821660048201526024810188905292602092849260449284929091165af1801561116c576143e2915f916143e75750613e42565b6141e7565b614400915060203d6020116104425761043481836138cf565b5f611375565b60019150145f613fba565b60405162461bcd60e51b815260206004820152600e60248201526d15185cdac818d85b98d95b1b195960921b6044820152606490fd5b60405162461bcd60e51b815260206004820152601560248201527415185cdac8185b1c9958591e481858d8d95c1d1959605a1b6044820152606490fd5b60405162461bcd60e51b815260206004820152601060248201526f15185cdac81b9bdd08195e1c1a5c995960821b6044820152606490fd5b6001600160a01b03908116908115614515575f8051602061483383398151915280546001600160a01b031981168417909155167f8be0079c531659141344cd1fd0a4f28419497f9722a3daafe3b4186f6b6457e05f80a3565b604051631e4fbdf760e01b81525f6004820152602490fd5b335f52600160205260ff60405f205416614545573390565b604051631cb9dd3760e21b8152602081600481335afa90811561116c575f9161456c575090565b90506020813d6020116145a3575b81614587602093836138cf565b8101031261072157516001600160a01b03811681036107215790565b3d915061457a565b5f80516020614833833981519152546001600160a01b031633036145cb57565b60405163118cdaa760e01b8152336004820152602490fd5b5f8051602061485383398151915260028154146146005760029055565b604051633ee5aeb560e01b8152600490fd5b6001600160e01b03191663a81913a560e01b811461473457631e61f6a360e31b81146147095763ec07e9d360e01b81146146de5763687b54cd60e01b81146146af576334b1f22560e21b1461468357604051602081018181106001600160401b0382111761070d576040525f815290565b60405161468f816138b4565b601081526f3a36b81736b7b2329730bab1ba34b7b760811b602082015290565b506040516146bc816138b4565b6012815271746d702e6d6f64652e62656e63686d61726b60701b602082015290565b506040516146eb816138b4565b600e81526d0e8dae05cdadec8ca5ce0d2e8c6d60931b602082015290565b50604051614716816138b4565b600e81526d746d702e6d6f64652e636c61696d60901b602082015290565b50604051614741816138b4565b600f81526e746d702e6d6f64652e626f756e747960881b602082015290565b60ff7ff0c57e16840df040f15088dc2f81fe391c3923bec73e23a9662efc9c229c6a005460401c161561478f57565b604051631afcd79f60e31b8152600490fd5b905f8091602081519101845af4808061481f575b156147d55750506040513d81523d5f602083013e60203d82010160405290565b156147fc57604051639996b31560e01b81526001600160a01b039091166004820152602490fd5b3d1561480d576040513d5f823e3d90fd5b60405163d6bda27560e01b8152600490fd5b503d1515806147b55750813b15156147b556fe9016d09d72d40fdae2fd8ceac6b6234c7706214fd39c1cd1e609a0528c1993009b779b17422d0df92223018b32b4d1fa46e071723d6817e2486d003becc55f007d30d1881f77d1707467f58525863cb9ccbaedc1c4ddb2a4d9dd1349ca7a4e4ba264697066735822122034ae6d7503bf7b841a07fb321aa1fb9a448ddf421cc748a62cd0442d9acccf0464736f6c63430008180033","linkReferences":{}},"methodIdentifiers":{"AUCTION()":"63779c74","AUCTION_DUTCH()":"fe78aecf","AUCTION_ENGLISH()":"b2b7bdd5","AUCTION_REVERSE_DUTCH()":"1c8e57f8","AUCTION_REVERSE_ENGLISH()":"c104d24d","BENCHMARK()":"f152d325","BOUNTY()":"d081f2b8","CLAIM()":"73d74876","PITCH()":"63326459","UPGRADE_INTERFACE_VERSION()":"ad3cb1cc","acceptAuction(bytes32,uint256)":"a86592ba","acceptSubmission(bytes32,address)":"aeb87ecf","addForwarder(address)":"5c41d2fe","cancelTask(bytes32)":"ee8ca3b5","claimTask(bytes32,uint256)":"8c58d5fc","createTask(uint256,uint256,bytes4,uint256,uint256,bytes32,string,bytes4)":"1e52fce7","defaultFeeBps()":"bcae25a4","feeRecipient()":"46904840","forfeitAndReopen(bytes32)":"afdc54cd","getBids(bytes32)":"9d4f988b","getTask(bytes32)":"15a29035","getWorkerStats(address)":"365ba2dd","initialize(address,address,uint16)":"7ebef529","isTrustedForwarder(address)":"572b6c05","owner()":"8da5cb5b","proxiableUUID()":"52d1902d","rateTask(bytes32,uint8,uint256,string,bytes32)":"ec7b92e2","refundExpired(bytes32)":"cc3e049b","removeForwarder(address)":"4d93172d","renounceOwnership()":"715018a6","reputationRegistry()":"c8db44e3","requesterNonce(address)":"9f63f2a6","selectLowestBidder(bytes32)":"537da21f","selectWorker(bytes32,address)":"ce37a263","setDefaultFeeBps(uint16)":"4488b652","setFeeRecipient(address)":"e74b981b","setReputationRegistry(address)":"3f0ce714","stakeForfeit(bytes32)":"d8648871","submitBid(bytes32,uint256)":"91dc1d30","submitWork(bytes32,bytes32)":"db7260bc","supportsInterface(bytes4)":"01ffc9a7","taskBids(bytes32,uint256)":"a6eecb72","tasks(bytes32)":"e579f500","totalFeesCollected()":"60c6d8ae","transferOwnership(address)":"f2fde38b","trustedForwarders(address)":"54776bb9","updateTask(bytes32,uint256,uint256,uint256,uint256)":"ae2925a6","upgradeToAndCall(address,bytes)":"4f1ef286","usdcToken()":"11eac855","workerStats(address)":"e48a3a60"},"id":42}