{"abi":[{"type":"constructor","inputs":[],"stateMutability":"nonpayable"},{"type":"function","name":"AUCTION","inputs":[],"outputs":[{"name":"","type":"bytes4","internalType":"bytes4"}],"stateMutability":"view"},{"type":"function","name":"AUCTION_DUTCH","inputs":[],"outputs":[{"name":"","type":"bytes4","internalType":"bytes4"}],"stateMutability":"view"},{"type":"function","name":"AUCTION_ENGLISH","inputs":[],"outputs":[{"name":"","type":"bytes4","internalType":"bytes4"}],"stateMutability":"view"},{"type":"function","name":"AUCTION_REVERSE_DUTCH","inputs":[],"outputs":[{"name":"","type":"bytes4","internalType":"bytes4"}],"stateMutability":"view"},{"type":"function","name":"AUCTION_REVERSE_ENGLISH","inputs":[],"outputs":[{"name":"","type":"bytes4","internalType":"bytes4"}],"stateMutability":"view"},{"type":"function","name":"BENCHMARK","inputs":[],"outputs":[{"name":"","type":"bytes4","internalType":"bytes4"}],"stateMutability":"view"},{"type":"function","name":"BOUNTY","inputs":[],"outputs":[{"name":"","type":"bytes4","internalType":"bytes4"}],"stateMutability":"view"},{"type":"function","name":"CLAIM","inputs":[],"outputs":[{"name":"","type":"bytes4","internalType":"bytes4"}],"stateMutability":"view"},{"type":"function","name":"PITCH","inputs":[],"outputs":[{"name":"","type":"bytes4","internalType":"bytes4"}],"stateMutability":"view"},{"type":"function","name":"UPGRADE_INTERFACE_VERSION","inputs":[],"outputs":[{"name":"","type":"string","internalType":"string"}],"stateMutability":"view"},{"type":"function","name":"acceptAuction","inputs":[{"name":"taskId","type":"bytes32","internalType":"bytes32"},{"name":"price","type":"uint256","internalType":"uint256"}],"outputs":[],"stateMutability":"nonpayable"},{"type":"function","name":"acceptSubmission","inputs":[{"name":"taskId","type":"bytes32","internalType":"bytes32"},{"name":"worker","type":"address","internalType":"address"}],"outputs":[],"stateMutability":"nonpayable"},{"type":"function","name":"addForwarder","inputs":[{"name":"forwarder","type":"address","internalType":"address"}],"outputs":[],"stateMutability":"nonpayable"},{"type":"function","name":"cancelTask","inputs":[{"name":"taskId","type":"bytes32","internalType":"bytes32"}],"outputs":[],"stateMutability":"nonpayable"},{"type":"function","name":"claimTask","inputs":[{"name":"taskId","type":"bytes32","internalType":"bytes32"},{"name":"stakeAmount","type":"uint256","internalType":"uint256"}],"outputs":[],"stateMutability":"nonpayable"},{"type":"function","name":"createTask","inputs":[{"name":"reward","type":"uint256","internalType":"uint256"},{"name":"duration","type":"uint256","internalType":"uint256"},{"name":"mode","type":"bytes4","internalType":"bytes4"},{"name":"pitchDeadline","type":"uint256","internalType":"uint256"},{"name":"bidDeadline","type":"uint256","internalType":"uint256"},{"name":"contentHash","type":"bytes32","internalType":"bytes32"},{"name":"contentURI","type":"string","internalType":"string"},{"name":"auctionSubtype","type":"bytes4","internalType":"bytes4"}],"outputs":[{"name":"taskId","type":"bytes32","internalType":"bytes32"}],"stateMutability":"nonpayable"},{"type":"function","name":"defaultFeeBps","inputs":[],"outputs":[{"name":"","type":"uint16","internalType":"uint16"}],"stateMutability":"view"},{"type":"function","name":"evaluatorFor","inputs":[{"name":"taskId","type":"bytes32","internalType":"bytes32"}],"outputs":[{"name":"evaluator","type":"address","internalType":"address"}],"stateMutability":"view"},{"type":"function","name":"feeForTask","inputs":[{"name":"taskId","type":"bytes32","internalType":"bytes32"}],"outputs":[{"name":"","type":"uint16","internalType":"uint16"}],"stateMutability":"view"},{"type":"function","name":"feeRecipient","inputs":[],"outputs":[{"name":"","type":"address","internalType":"address"}],"stateMutability":"view"},{"type":"function","name":"forfeitAndReopen","inputs":[{"name":"taskId","type":"bytes32","internalType":"bytes32"}],"outputs":[],"stateMutability":"nonpayable"},{"type":"function","name":"getBids","inputs":[{"name":"taskId","type":"bytes32","internalType":"bytes32"}],"outputs":[{"name":"","type":"tuple[]","internalType":"struct TaskMarket.Bid[]","components":[{"name":"worker","type":"address","internalType":"address"},{"name":"price","type":"uint256","internalType":"uint256"}]}],"stateMutability":"view"},{"type":"function","name":"getTask","inputs":[{"name":"taskId","type":"bytes32","internalType":"bytes32"}],"outputs":[{"name":"","type":"tuple","internalType":"struct ITMP.Task","components":[{"name":"id","type":"bytes32","internalType":"bytes32"},{"name":"requester","type":"address","internalType":"address"},{"name":"worker","type":"address","internalType":"address"},{"name":"reward","type":"uint256","internalType":"uint256"},{"name":"createdAt","type":"uint256","internalType":"uint256"},{"name":"expiryTime","type":"uint256","internalType":"uint256"},{"name":"status","type":"uint8","internalType":"enum ITMP.TaskStatus"},{"name":"rating","type":"uint8","internalType":"uint8"},{"name":"mode","type":"bytes4","internalType":"bytes4"},{"name":"stakeAmount","type":"uint256","internalType":"uint256"},{"name":"claimer","type":"address","internalType":"address"},{"name":"claimedAt","type":"uint256","internalType":"uint256"},{"name":"pitchDeadline","type":"uint256","internalType":"uint256"},{"name":"feeBps","type":"uint16","internalType":"uint16"},{"name":"bidDeadline","type":"uint256","internalType":"uint256"},{"name":"maxPrice","type":"uint256","internalType":"uint256"},{"name":"deliverable","type":"bytes32","internalType":"bytes32"},{"name":"contentHash","type":"bytes32","internalType":"bytes32"},{"name":"contentURI","type":"string","internalType":"string"},{"name":"auctionSubtype","type":"bytes4","internalType":"bytes4"},{"name":"lowestBidder","type":"address","internalType":"address"},{"name":"lowestBidPrice","type":"uint256","internalType":"uint256"}]}],"stateMutability":"view"},{"type":"function","name":"getWorkerStats","inputs":[{"name":"worker","type":"address","internalType":"address"}],"outputs":[{"name":"","type":"tuple","internalType":"struct ITMP.WorkerStats","components":[{"name":"completedTasks","type":"uint256","internalType":"uint256"},{"name":"ratedTasks","type":"uint256","internalType":"uint256"},{"name":"totalStars","type":"uint256","internalType":"uint256"}]}],"stateMutability":"view"},{"type":"function","name":"initialize","inputs":[{"name":"_usdcToken","type":"address","internalType":"address"},{"name":"_feeRecipient","type":"address","internalType":"address"},{"name":"_defaultFeeBps","type":"uint16","internalType":"uint16"}],"outputs":[],"stateMutability":"nonpayable"},{"type":"function","name":"isTrustedForwarder","inputs":[{"name":"addr","type":"address","internalType":"address"}],"outputs":[{"name":"","type":"bool","internalType":"bool"}],"stateMutability":"view"},{"type":"function","name":"owner","inputs":[],"outputs":[{"name":"","type":"address","internalType":"address"}],"stateMutability":"view"},{"type":"function","name":"proxiableUUID","inputs":[],"outputs":[{"name":"","type":"bytes32","internalType":"bytes32"}],"stateMutability":"view"},{"type":"function","name":"rateTask","inputs":[{"name":"taskId","type":"bytes32","internalType":"bytes32"},{"name":"rating","type":"uint8","internalType":"uint8"},{"name":"workerAgentId","type":"uint256","internalType":"uint256"},{"name":"raterAgentId","type":"uint256","internalType":"uint256"},{"name":"feedbackURI","type":"string","internalType":"string"},{"name":"feedbackHash","type":"bytes32","internalType":"bytes32"}],"outputs":[],"stateMutability":"nonpayable"},{"type":"function","name":"refundExpired","inputs":[{"name":"taskId","type":"bytes32","internalType":"bytes32"}],"outputs":[],"stateMutability":"nonpayable"},{"type":"function","name":"removeForwarder","inputs":[{"name":"forwarder","type":"address","internalType":"address"}],"outputs":[],"stateMutability":"nonpayable"},{"type":"function","name":"renounceOwnership","inputs":[],"outputs":[],"stateMutability":"nonpayable"},{"type":"function","name":"reputationRegistry","inputs":[],"outputs":[{"name":"","type":"address","internalType":"address"}],"stateMutability":"view"},{"type":"function","name":"requesterNonce","inputs":[{"name":"","type":"address","internalType":"address"}],"outputs":[{"name":"","type":"uint256","internalType":"uint256"}],"stateMutability":"view"},{"type":"function","name":"selectLowestBidder","inputs":[{"name":"taskId","type":"bytes32","internalType":"bytes32"}],"outputs":[],"stateMutability":"nonpayable"},{"type":"function","name":"selectWorker","inputs":[{"name":"taskId","type":"bytes32","internalType":"bytes32"},{"name":"worker","type":"address","internalType":"address"}],"outputs":[],"stateMutability":"nonpayable"},{"type":"function","name":"setDefaultFeeBps","inputs":[{"name":"feeBps","type":"uint16","internalType":"uint16"}],"outputs":[],"stateMutability":"nonpayable"},{"type":"function","name":"setFeeRecipient","inputs":[{"name":"recipient","type":"address","internalType":"address"}],"outputs":[],"stateMutability":"nonpayable"},{"type":"function","name":"setReputationRegistry","inputs":[{"name":"registry","type":"address","internalType":"address"}],"outputs":[],"stateMutability":"nonpayable"},{"type":"function","name":"stakeForfeit","inputs":[{"name":"","type":"bytes32","internalType":"bytes32"}],"outputs":[{"name":"","type":"uint256","internalType":"uint256"}],"stateMutability":"view"},{"type":"function","name":"submitBid","inputs":[{"name":"taskId","type":"bytes32","internalType":"bytes32"},{"name":"price","type":"uint256","internalType":"uint256"}],"outputs":[],"stateMutability":"nonpayable"},{"type":"function","name":"submitWork","inputs":[{"name":"taskId","type":"bytes32","internalType":"bytes32"},{"name":"deliverable","type":"bytes32","internalType":"bytes32"}],"outputs":[],"stateMutability":"nonpayable"},{"type":"function","name":"supportsInterface","inputs":[{"name":"interfaceId","type":"bytes4","internalType":"bytes4"}],"outputs":[{"name":"","type":"bool","internalType":"bool"}],"stateMutability":"pure"},{"type":"function","name":"taskBids","inputs":[{"name":"","type":"bytes32","internalType":"bytes32"},{"name":"","type":"uint256","internalType":"uint256"}],"outputs":[{"name":"worker","type":"address","internalType":"address"},{"name":"price","type":"uint256","internalType":"uint256"}],"stateMutability":"view"},{"type":"function","name":"tasks","inputs":[{"name":"","type":"bytes32","internalType":"bytes32"}],"outputs":[{"name":"id","type":"bytes32","internalType":"bytes32"},{"name":"requester","type":"address","internalType":"address"},{"name":"worker","type":"address","internalType":"address"},{"name":"reward","type":"uint256","internalType":"uint256"},{"name":"createdAt","type":"uint256","internalType":"uint256"},{"name":"expiryTime","type":"uint256","internalType":"uint256"},{"name":"status","type":"uint8","internalType":"enum ITMP.TaskStatus"},{"name":"rating","type":"uint8","internalType":"uint8"},{"name":"mode","type":"bytes4","internalType":"bytes4"},{"name":"stakeAmount","type":"uint256","internalType":"uint256"},{"name":"claimer","type":"address","internalType":"address"},{"name":"claimedAt","type":"uint256","internalType":"uint256"},{"name":"pitchDeadline","type":"uint256","internalType":"uint256"},{"name":"feeBps","type":"uint16","internalType":"uint16"},{"name":"bidDeadline","type":"uint256","internalType":"uint256"},{"name":"maxPrice","type":"uint256","internalType":"uint256"},{"name":"deliverable","type":"bytes32","internalType":"bytes32"},{"name":"contentHash","type":"bytes32","internalType":"bytes32"},{"name":"contentURI","type":"string","internalType":"string"},{"name":"auctionSubtype","type":"bytes4","internalType":"bytes4"},{"name":"lowestBidder","type":"address","internalType":"address"},{"name":"lowestBidPrice","type":"uint256","internalType":"uint256"}],"stateMutability":"view"},{"type":"function","name":"totalFeesCollected","inputs":[],"outputs":[{"name":"","type":"uint256","internalType":"uint256"}],"stateMutability":"view"},{"type":"function","name":"transferOwnership","inputs":[{"name":"newOwner","type":"address","internalType":"address"}],"outputs":[],"stateMutability":"nonpayable"},{"type":"function","name":"trustedForwarders","inputs":[{"name":"","type":"address","internalType":"address"}],"outputs":[{"name":"","type":"bool","internalType":"bool"}],"stateMutability":"view"},{"type":"function","name":"updateTask","inputs":[{"name":"taskId","type":"bytes32","internalType":"bytes32"},{"name":"newReward","type":"uint256","internalType":"uint256"},{"name":"newExpiryTime","type":"uint256","internalType":"uint256"},{"name":"newBidDeadline","type":"uint256","internalType":"uint256"},{"name":"newPitchDeadline","type":"uint256","internalType":"uint256"}],"outputs":[],"stateMutability":"nonpayable"},{"type":"function","name":"upgradeToAndCall","inputs":[{"name":"newImplementation","type":"address","internalType":"address"},{"name":"data","type":"bytes","internalType":"bytes"}],"outputs":[],"stateMutability":"payable"},{"type":"function","name":"usdcToken","inputs":[],"outputs":[{"name":"","type":"address","internalType":"contract IERC20"}],"stateMutability":"view"},{"type":"function","name":"workerStats","inputs":[{"name":"","type":"address","internalType":"address"}],"outputs":[{"name":"completedTasks","type":"uint256","internalType":"uint256"},{"name":"ratedTasks","type":"uint256","internalType":"uint256"},{"name":"totalStars","type":"uint256","internalType":"uint256"}],"stateMutability":"view"},{"type":"event","name":"BidSubmitted","inputs":[{"name":"taskId","type":"bytes32","indexed":true,"internalType":"bytes32"},{"name":"worker","type":"address","indexed":true,"internalType":"address"},{"name":"price","type":"uint256","indexed":false,"internalType":"uint256"}],"anonymous":false},{"type":"event","name":"FeeRecipientUpdated","inputs":[{"name":"newRecipient","type":"address","indexed":false,"internalType":"address"}],"anonymous":false},{"type":"event","name":"FeesUpdated","inputs":[{"name":"newFeeBps","type":"uint16","indexed":false,"internalType":"uint16"}],"anonymous":false},{"type":"event","name":"ForwarderUpdated","inputs":[{"name":"forwarder","type":"address","indexed":true,"internalType":"address"},{"name":"trusted","type":"bool","indexed":false,"internalType":"bool"}],"anonymous":false},{"type":"event","name":"Initialized","inputs":[{"name":"version","type":"uint64","indexed":false,"internalType":"uint64"}],"anonymous":false},{"type":"event","name":"OwnershipTransferred","inputs":[{"name":"previousOwner","type":"address","indexed":true,"internalType":"address"},{"name":"newOwner","type":"address","indexed":true,"internalType":"address"}],"anonymous":false},{"type":"event","name":"ReputationRegistryUpdated","inputs":[{"name":"newRegistry","type":"address","indexed":true,"internalType":"address"}],"anonymous":false},{"type":"event","name":"StakeForfeited","inputs":[{"name":"taskId","type":"bytes32","indexed":true,"internalType":"bytes32"},{"name":"claimer","type":"address","indexed":true,"internalType":"address"},{"name":"stakeAmount","type":"uint256","indexed":false,"internalType":"uint256"}],"anonymous":false},{"type":"event","name":"StakeReturned","inputs":[{"name":"taskId","type":"bytes32","indexed":true,"internalType":"bytes32"},{"name":"claimer","type":"address","indexed":true,"internalType":"address"},{"name":"stakeAmount","type":"uint256","indexed":false,"internalType":"uint256"}],"anonymous":false},{"type":"event","name":"TaskAccepted","inputs":[{"name":"taskId","type":"bytes32","indexed":true,"internalType":"bytes32"},{"name":"requester","type":"address","indexed":true,"internalType":"address"},{"name":"worker","type":"address","indexed":true,"internalType":"address"},{"name":"workerPayment","type":"uint256","indexed":false,"internalType":"uint256"},{"name":"platformFee","type":"uint256","indexed":false,"internalType":"uint256"}],"anonymous":false},{"type":"event","name":"TaskCancelled","inputs":[{"name":"taskId","type":"bytes32","indexed":true,"internalType":"bytes32"},{"name":"requester","type":"address","indexed":true,"internalType":"address"},{"name":"refundAmount","type":"uint256","indexed":false,"internalType":"uint256"}],"anonymous":false},{"type":"event","name":"TaskClaimed","inputs":[{"name":"taskId","type":"bytes32","indexed":true,"internalType":"bytes32"},{"name":"claimer","type":"address","indexed":true,"internalType":"address"},{"name":"stakeAmount","type":"uint256","indexed":false,"internalType":"uint256"}],"anonymous":false},{"type":"event","name":"TaskCreated","inputs":[{"name":"taskId","type":"bytes32","indexed":true,"internalType":"bytes32"},{"name":"requester","type":"address","indexed":true,"internalType":"address"},{"name":"reward","type":"uint256","indexed":false,"internalType":"uint256"},{"name":"expiryTime","type":"uint256","indexed":false,"internalType":"uint256"},{"name":"mode","type":"bytes4","indexed":false,"internalType":"bytes4"}],"anonymous":false},{"type":"event","name":"TaskExpired","inputs":[{"name":"taskId","type":"bytes32","indexed":true,"internalType":"bytes32"},{"name":"requester","type":"address","indexed":true,"internalType":"address"},{"name":"refundAmount","type":"uint256","indexed":false,"internalType":"uint256"}],"anonymous":false},{"type":"event","name":"TaskRated","inputs":[{"name":"taskId","type":"bytes32","indexed":true,"internalType":"bytes32"},{"name":"worker","type":"address","indexed":true,"internalType":"address"},{"name":"rating","type":"uint8","indexed":false,"internalType":"uint8"},{"name":"raterAgentId","type":"uint256","indexed":false,"internalType":"uint256"}],"anonymous":false},{"type":"event","name":"TaskReopened","inputs":[{"name":"taskId","type":"bytes32","indexed":true,"internalType":"bytes32"}],"anonymous":false},{"type":"event","name":"TaskSubmitted","inputs":[{"name":"taskId","type":"bytes32","indexed":true,"internalType":"bytes32"},{"name":"worker","type":"address","indexed":true,"internalType":"address"},{"name":"deliverable","type":"bytes32","indexed":false,"internalType":"bytes32"}],"anonymous":false},{"type":"event","name":"TaskUpdated","inputs":[{"name":"taskId","type":"bytes32","indexed":true,"internalType":"bytes32"},{"name":"newReward","type":"uint256","indexed":false,"internalType":"uint256"},{"name":"newExpiryTime","type":"uint256","indexed":false,"internalType":"uint256"}],"anonymous":false},{"type":"event","name":"TaskWorkerSelected","inputs":[{"name":"taskId","type":"bytes32","indexed":true,"internalType":"bytes32"},{"name":"worker","type":"address","indexed":true,"internalType":"address"}],"anonymous":false},{"type":"event","name":"Upgraded","inputs":[{"name":"implementation","type":"address","indexed":true,"internalType":"address"}],"anonymous":false},{"type":"error","name":"AddressEmptyCode","inputs":[{"name":"target","type":"address","internalType":"address"}]},{"type":"error","name":"ERC1967InvalidImplementation","inputs":[{"name":"implementation","type":"address","internalType":"address"}]},{"type":"error","name":"ERC1967NonPayable","inputs":[]},{"type":"error","name":"FailedCall","inputs":[]},{"type":"error","name":"InvalidInitialization","inputs":[]},{"type":"error","name":"NotInitializing","inputs":[]},{"type":"error","name":"OwnableInvalidOwner","inputs":[{"name":"owner","type":"address","internalType":"address"}]},{"type":"error","name":"OwnableUnauthorizedAccount","inputs":[{"name":"account","type":"address","internalType":"address"}]},{"type":"error","name":"ReentrancyGuardReentrantCall","inputs":[]},{"type":"error","name":"UUPSUnauthorizedCallContext","inputs":[]},{"type":"error","name":"UUPSUnsupportedProxiableUUID","inputs":[{"name":"slot","type":"bytes32","internalType":"bytes32"}]}],"bytecode":{"object":"0x60a08060405234620000f55760017f9b779b17422d0df92223018b32b4d1fa46e071723d6817e2486d003becc55f0055306080527ff0c57e16840df040f15088dc2f81fe391c3923bec73e23a9662efc9c229c6a009081549060ff8260401c16620000e657506001600160401b036002600160401b031982821601620000a0575b604051614b4e9081620000fa823960805181818161263f01526126f80152f35b6001600160401b031990911681179091556040519081527fc7f505b2f371ae2175ee4913f4499e1f2633a7b5936321eed1cdaeb6115181d290602090a15f808062000080565b63f92ee8a960e01b8152600490fd5b5f80fdfe610140806040526004361015610013575f80fd5b5f905f3560e01c90816301ffc9a7146139c35750806311eac8551461399c57806315a29035146136485780631c8e57f8146136265780631e52fce714612e105780632144ea4914612a98578063365ba2dd14612a135780633f0ce714146129ab5780634488b65214612939578063469048401461290c5780634d93172d1461289f5780634f1ef286146126a957806352d1902d1461262c578063537da21f146124b157806354776bb914612472578063572b6c05146124725780635c41d2fe146123b757806360c6d8ae14612399578063633264591461237657806363779c7414612353578063715018a6146122ea57806373d74876146122c75780637ebef529146120e05780638c58d5fc14611f875780638da5cb5b14611f5257806391dc1d3014611d115780639d4f988b14611c115780639d691d3614611be05780639f63f2a614611ba7578063a6eecb7214611b50578063a86592ba146119ee578063ad3cb1cc146119a4578063ae2925a6146114bc578063aeb87ecf14610efc578063afdc54cd14610c88578063b2b7bdd514610c65578063bcae25a414610c43578063c104d24d14610c20578063c8db44e314610bf7578063cc3e049b14610bbe578063ce37a26314610a54578063d081f2b814610a31578063d864887114610a07578063da0eb223146109d6578063db7260bc1461077a578063e48a3a6014610729578063e579f5001461055b578063e74b981b14610499578063ee8ca3b5146102d0578063f152d325146102ad578063f2fde38b146102805763fe78aecf1461025b575f80fd5b3461027d578060031936011261027d57604051633c948d2360e01b8152602090f35b80fd5b503461027d57602036600319011261027d576102aa61029d613ad6565b6102a561497f565b614742565b80f35b503461027d578060031936011261027d5760405163687b54cd60e01b8152602090f35b503461027d576020908160031936011261027d576103486004353383526001845261030160ff604085205416613cd7565b6103096149b7565b6103116147b3565b818452600285526040842060018101805491966001600160a01b0392831695909386908490610341831515613dc5565b1614613d4a565b60068701805460ff811660078110156104855798859260066003936103736103d69a9b9c9d15613e49565b8c60d082901b6001600160e01b0319166334b1f22560e21b1461046a575b5060ff19161790550154885460405163a9059cbb60e01b81526001600160a01b0390991660048a015260248901829052909795869185169082908b9082906044820190565b03925af193841561045f577f9954d6823ea6810a4780ffb920d7c2a569d41b2d0c99ea5d9314f8ba805de4bc94610414918991610432575b506141c9565b541693604051908152a360015f80516020614ad98339815191525580f35b6104529150853d8711610458575b61044a8183613b54565b810190613fd2565b5f61040e565b503d610440565b6040513d89823e3d90fd5b6040818d61047f935260058952205415613f8c565b8c610391565b634e487b7160e01b89526021600452602489fd5b503461027d57602036600319011261027d576104b3613ad6565b6104bb61497f565b6001600160a01b038116908115610522576006805462010000600160b01b03191660109290921b62010000600160b01b03169190911790556040519081527f7a7b5a0a132f9e0581eb8527f66eae9ee89c2a3e79d4ac7e41a1f1f4d48a7fc290602090a180f35b60405162461bcd60e51b8152602060048201526011602482015270125b9d985b1a59081c9958da5c1a595b9d607a1b6044820152606490fd5b503461027d57602036600319011261027d57600480358252600260208190526040909220805460018201546001600160a01b03908116610100529382015484166101205260038201549282015460058301546006840154600785015460088601546009870154600a880154600b890154600c8a0154600d8b0154600e8c0154600f8d01549e909d919c929b61ffff9094169a9499959896169695949392909160129061060960108201613c35565b608052601181015460e052015460a05260405160c05260c0515261010051602060c051015261012051604060c0510152606060c0510152608060c051015260a060c051015261065f60c080510160ff8316613a5e565b60ff8160081c1660e060c051015263ffffffff60e01b9060d01b1661010060c051015261012060c051015261014060c051015261016060c051015261018060c05101526101a060c05101526101c060c05101526101e060c051015261020060c051015261022060c05101526102c061024060c05101526106e76102c060c05101608051613a6b565b63ffffffff60e01b60e05160e01b1661026060c051015260018060a01b0360e05160201c1661028060c051015260a0516102a060c051015260c051900360c051f35b503461027d57602036600319011261027d576060906040906001600160a01b03610751613ad6565b168152600360205220805490600260018201549101549060405192835260208301526040820152f35b503461027d57604036600319011261027d576004356024359033835260016020526107ab60ff604085205416613cd7565b6107b36147b3565b81845260026020526040842060018101546001600160a01b039291906107dc9084161515613dc5565b6107ec6005820154421115613f05565b600e8101805461099157859055600681018054909160d082901b6001600160e01b03191663a81913a560e01b81148015610981575b1561087d57505060ff8116600781101561086957916003602094926108555f80516020614af9833981519152979515613e49565b60ff19161790555b6040519586521693a380f35b634e487b7160e01b88526021600452602488fd5b909250631e61f6a360e31b81036108e5575060ff1660078110156108d157916108cc8460085f80516020614af983398151915296946108c060016020981461406a565b015416838316146140a9565b61085d565b634e487b7160e01b87526021600452602487fd5b63ec07e9d360e01b8114908115610970575b50610916575b50505f80516020614af98339815191529160209161085d565b60ff1660078110156108d1579161095c8460025f80516020614af98339815191529694610950878360209914908115610965575b50614028565b01541683831614613fea565b918193506108fd565b60019150145f61094a565b6334b1f22560e21b1490505f6108f7565b5063687b54cd60e01b8114610821565b60405162461bcd60e51b815260206004820152601760248201527f44656c6976657261626c6520616c7265616479207365740000000000000000006044820152606490fd5b503461027d57602036600319011261027d5761ffff600b604060209360043581526002855220015416604051908152f35b503461027d57602036600319011261027d5760406020916004358152600483522054604051908152f35b503461027d578060031936011261027d5760405163a81913a560e01b8152602090f35b503461027d57604036600319011261027d57600435610a71613aec565b903383526001602052610a8a60ff604085205416613cd7565b610a926147b3565b81845260026020526040842060018101546001600160a01b0392610abb91841690841614613d4a565b60068101805490926313f8162d60e01b60d083901b6001600160e01b03191601610b865760ff8216600781101561086957610af69015613ec4565b600a8301544211610b49576002809301951694856001600160601b0360a01b82541617905560ff19161790557f8259e46acb41c409f7763c24e2f5dba1221be1944b6960acbfaf4ee07ea8de1e8380a380f35b60405162461bcd60e51b8152602060048201526015602482015274141a5d18da08191958591b1a5b99481c185cdcd959605a1b6044820152606490fd5b60405162461bcd60e51b815260206004820152601060248201526f4e6f742061205069746368207461736b60801b6044820152606490fd5b503461027d57602036600319011261027d57610bd86149b7565b610be3600435614205565b60015f80516020614ad98339815191525580f35b503461027d578060031936011261027d576008546040516001600160a01b039091168152602090f35b503461027d578060031936011261027d576040516310cf2d7f60e01b8152602090f35b503461027d578060031936011261027d57602061ffff60065416604051908152f35b503461027d578060031936011261027d576040516360ce192b60e11b8152602090f35b503461027d57602080600319360112610ef8576004359033835260018152610cb660ff604085205416613cd7565b610cbe6147b3565b8284526002825260408420600181015490916001600160a01b0391610ce891831690831614613d4a565b600682019060ff8254610d0f631e61f6a360e31b63ffffffff60e01b8360d01b1614613e85565b1660078110156108d1576001610d25911461406a565b6005830154421115610ebc57908291600787959401938454918787526004825282604088205582610d9d575b5050815460ff1916909155506008810180546001600160a01b0319169055600901829055557fae5c872b4498d8e857e43522a12d5dfde96a0d5089787500d6495dade8e994fa8280a280f35b909192939495828483610de69354168460065460101c168c60405180968195829463a9059cbb60e01b84526004840160209093929193604081019460018060a01b031681520152565b03925af1908115610eb1578991610e94575b5015610e4f579282877fb18ae0fffd2ad14984107b582c2dec2fb6effb8bf06d43a59dd102d88d5a3e938a9897948997610e36600998600754613d3d565b60075560088701541693604051908152a3918193610d51565b60405162461bcd60e51b815260048101839052601760248201527f466f7266656974207472616e73666572206661696c65640000000000000000006044820152606490fd5b610eab9150833d85116104585761044a8183613b54565b5f610df8565b6040513d8b823e3d90fd5b60405162461bcd60e51b815260048101859052601460248201527315185cdac81b9bdd081e595d08195e1c1a5c995960621b6044820152606490fd5b5080fd5b503461027d57604036600319011261027d57610f16613aec565b3382526001602052610f2e60ff604084205416613cd7565b610f366149b7565b610f3e6147b3565b6004358352600260205260408320600181015491929091610f6c906001600160a01b03808616911614613d4a565b610f7c6005830154421115613f05565b600682015460d081901b6001600160e01b031916631e61f6a360e31b81036113c5575060ff811660078110156113b15790610fbb60016004931461406a565b6008840154610fd7906001600160a01b038581169116146140a9565b60ff19161760068301556002820180546001600160a01b0319166001600160a01b0383169081179091558452600360205260408420805461101790613d1b565b9055600682015460d01b6001600160e01b0319166334b1f22560e21b036113a75760078201545b61105e61271061105661ffff600b87015416846140ee565b048092613fc5565b855460405163a9059cbb60e01b81526001600160a01b038581166004830152602482018490529295929091602091839160449183918c91165af1801561045f576110af918891611388575b50614101565b816112fe575b600681015460d01b6001600160e01b031916631e61f6a360e31b14806112f1575b611235575b600681015460d01b6001600160e01b0319166334b1f22560e21b14611156575b506040805193845260208401919091526001600160a01b039182169390911691600435917f46c82fee4cedc2a273b6dc93ed59039d9208122b933b8f32bd87a0034e336a9791a460015f80516020614ad98339815191525580f35b611169600d820154600783015490613fc5565b9081611176575b506110fb565b86546001919091015460405163a9059cbb60e01b81526001600160a01b0391821660048201526024810193909352602091839160449183918b91165af190811561122a57869161120b575b50156111ce575f80611170565b60405162461bcd60e51b8152602060048201526015602482015274105d58dd1a5bdb881c99599d5b990819985a5b1959605a1b6044820152606490fd5b611224915060203d6020116104585761044a8183613b54565b5f6111c1565b6040513d88823e3d90fd5b85546008820154600783015460405163a9059cbb60e01b81526001600160a01b039283166004820152602481019190915291602091839160449183918c91165af1801561045f5761128d9188916112d2575b50614187565b60018060a01b0360088201541660078201546040519081527ffbf073a7709bd64bf3406dfd536abdbc9a3750eb99c8f26f543768c24a237b07602060043592a36110db565b6112eb915060203d6020116104585761044a8183613b54565b5f611287565b50600781015415156110d6565b855460065460405163a9059cbb60e01b81526001600160a01b0360109290921c821660048201526024810185905291602091839116818a816044810103925af1801561045f57611355918891611369575b50614145565b61136182600754613d3d565b6007556110b5565b611382915060203d6020116104585761044a8183613b54565b5f61134f565b6113a1915060203d6020116104585761044a8183613b54565b5f6110a9565b600382015461103e565b634e487b7160e01b86526021600452602486fd5b63ec07e9d360e01b8103611411575060ff811660078110156113b157906113f0600260049314614028565b600284015461140c906001600160a01b03858116911614613fea565b610fd7565b6334b1f22560e21b0361148d5760ff811660078110156113b1576001036114525760028301546004919061140c906001600160a01b03858116911614613fea565b60405162461bcd60e51b815260206004820152601360248201527215da5b9b995c881b9bdd081cd95b1958dd1959606a1b6044820152606490fd5b60ff811660078110156113b1579061140c82600493159081156114b1575b50613ec4565b60039150145f6114ab565b503461027d5760a036600319011261027d5733815260016020526114e660ff604083205416613cd7565b6114ee6149b7565b6114f66147b3565b60043582526002602052604082209061153160018060a01b036001840154168092611522821515613dc5565b6001600160a01b031614613d4a565b600682015460ff811660078110156119905761154d9015613e49565b60d01b6001600160e01b0319166334b1f22560e21b14611973575b60038201546005830154600c84015490600a85015491602435151594858096611967575b611850575b506044356117f4575b60643515159182806117d3575b611777575b6084351515948580611756575b6116fb575b866116ee575b5085156116c8575b508415611681575b5050821561163c575b50506115f9575b5060015f80516020614ad98339815191525580f35b6005600382015491015460405191825260208201527fd1530ce534a8c2beaea77a65ae6ad931e29c84727381c531cdfb47f2889ebe63604060043592a25f6115e4565b90915081611674575b5080611653575b5f806115dd565b50600681015460d01b6001600160e01b03191663ec07e9d360e01b1461164c565b905060843514155f611645565b91935090816116bb575b508061169a575b915f806115d4565b50600683015460d01b6001600160e01b0319166334b1f22560e21b14611692565b905060643514155f61168b565b9094506044351515906044356116e1575b50935f6115cc565b905060443514155f6116d9565b602435141595505f6115c4565b42608435111561171257608435600a8901556115be565b606460405162461bcd60e51b815260206004820152602060248201527f506974636820646561646c696e65206d75737420626520696e206675747572656044820152fd5b50600688015460d01b6001600160e01b03191663ec07e9d360e01b146115b9565b42606435111561178e57606435600c8801556115ac565b60405162461bcd60e51b815260206004820152601e60248201527f42696420646561646c696e65206d75737420626520696e2066757475726500006044820152606490fd5b50600687015460d01b6001600160e01b0319166334b1f22560e21b146115a7565b42604435111561180b57604435600587015561159a565b60405162461bcd60e51b815260206004820152601860248201527f457870697279206d75737420626520696e2066757475726500000000000000006044820152606490fd5b846024351115611897575b506024356003870155600686015460d01b6001600160e01b0319166334b1f22560e21b1461188a575b5f611591565b602435600d870155611884565b60206118e5916118a960243588613fc5565b8a5460405163a9059cbb60e01b81526001600160a01b0393841660048201526024810192909252909384929091169082908c9082906044820190565b03925af190811561195c57889161193d575b5015611903575f61185b565b60405162461bcd60e51b81526020600482015260126024820152711554d110c81c99599d5b990819985a5b195960721b6044820152606490fd5b611956915060203d6020116104585761044a8183613b54565b5f6118f7565b6040513d8a823e3d90fd5b5084602435141561158c565b6004358352600560205261198b604084205415613f8c565b611568565b634e487b7160e01b85526021600452602485fd5b503461027d578060031936011261027d576119ea6040516119c481613b39565b60058152640352e302e360dc1b6020820152604051918291602083526020830190613a6b565b0390f35b503461027d576119fd36613bba565b903383526001602052611a1660ff604085205416613cd7565b611a1e6147b3565b8184526002602052604084209260018060a01b03611a43816001870154161515613dc5565b6006850180549092611a6b60d083901b6001600160e01b0319166334b1f22560e21b14613e07565b60ff8216600781101561048557611a829015613e49565b600d8701548111611b0b57859360016020938360077f50fe806ad7090c0b4c89850edc7f5f0619df0b894aa98735d1d54c60548bf2869760028d019a169b8c9a8b6001600160601b0360a01b825416179055015560ff1916179055604051908152a37f8259e46acb41c409f7763c24e2f5dba1221be1944b6960acbfaf4ee07ea8de1e8380a380f35b60405162461bcd60e51b815260206004820152601760248201527f50726963652065786365656473206d61782070726963650000000000000000006044820152606490fd5b503461027d57611b5f36613bba565b9082526005602052604082208054821015611ba357611b7e9250613bd0565b508054600190910154604080516001600160a01b039093168352602083019190915290f35b8280fd5b503461027d57602036600319011261027d576020906040906001600160a01b03611bcf613ad6565b168152600983522054604051908152f35b503461027d57602036600319011261027d576020611bff600435613f40565b6040516001600160a01b039091168152f35b503461027d576020908160031936011261027d5760043581526005825260408120918254906001600160401b038211611cfd5791929060405190611c5a848260051b0183613b54565b8082528382018093865284862086915b838310611cc057505050506040519280840191818552518092526040840192945b828110611c985784840385f35b855180516001600160a01b031685528201518483015294810194604090930192600101611c8b565b60028760019260409a9997989a51611cd781613b39565b848060a01b03865416815284860154838201528152019201920191909694939596611c6a565b634e487b7160e01b83526041600452602483fd5b503461027d57611d2036613bba565b90338352602060018152611d3a60ff604086205416613cd7565b611d426147b3565b828552600282526040852060018101546001600160a01b0395929190611d6b9087161515613dc5565b600681015460ff90611d9360d082901b6001600160e01b0319166334b1f22560e21b14613e07565b16600781101561086957611da79015613e49565b600c810154421015611f1757600d8101548311611eda57848752600584526040872090828254158015611ecd575b611e90575b50508560405192611dea84613b39565b16958683528483019184835280549068010000000000000000821015611e7c5790611e1a91600182018155613bd0565b939093611e68575183546001600160a01b031916911617825551600191909101556040519081527f50fe806ad7090c0b4c89850edc7f5f0619df0b894aa98735d1d54c60548bf2869190a380f35b634e487b7160e01b89526004899052602489fd5b634e487b7160e01b8a52604160045260248afd5b601282018590556011919091018054640100000000600160c01b03191660209290921b640100000000600160c01b03169190911790555f82611dda565b5060128201548510611dd5565b60405162461bcd60e51b81526004810185905260156024820152744269642065786365656473206d617820707269636560581b6044820152606490fd5b60405162461bcd60e51b8152600481018590526013602482015272109a5908191958591b1a5b99481c185cdcd959606a1b6044820152606490fd5b503461027d578060031936011261027d575f80516020614ab9833981519152546040516001600160a01b039091168152602090f35b503461027d57611f9636613bba565b903383526001602052611faf60ff604085205416613cd7565b611fb76149b7565b611fbf6147b3565b81845260026020526040842060018101549093916001600160a01b0391611fe99083161515613dc5565b169283156120aa57600681018054909161201960d083901b6001600160e01b031916631e61f6a360e31b14613e85565b60ff821660078110156108695784927f0c94d586dd5b832830019d8f427e4aa13e8ddbbf614cc0817a6b8dd9c5ae24be9560076020969461205c60019515613ec4565b61206c6005820154421115613f05565b6008810180546001600160a01b0319168c179055426009820155015560ff1916179055604051908152a360015f80516020614ad98339815191525580f35b60405162461bcd60e51b815260206004820152600e60248201526d24b73b30b634b2103bb7b935b2b960911b6044820152606490fd5b503461027d57606036600319011261027d576120fa613ad6565b612102613aec565b9060443561ffff81168091036122c3577ff0c57e16840df040f15088dc2f81fe391c3923bec73e23a9662efc9c229c6a009283549260ff8460401c1615936001600160401b038116801590816122bb575b60011490816122b1575b1590816122a8575b506122965767ffffffffffffffff198116600117865584612277575b5061218a6149e6565b6121926149e6565b61219b33614742565b6001600160a01b03908282161561223a576121ba612710851115613d86565b166001600160601b0360a01b8654161785556006549062010000600160b01b039060101b169069ffffffffffffffffffff60b01b1617176006556121fc575080f35b68ff00000000000000001981541690557fc7f505b2f371ae2175ee4913f4499e1f2633a7b5936321eed1cdaeb6115181d2602060405160018152a180f35b60405162461bcd60e51b8152602060048201526015602482015274125b9d985b1a5908199959481c9958da5c1a595b9d605a1b6044820152606490fd5b68ffffffffffffffffff1916680100000000000000011785555f612181565b60405163f92ee8a960e01b8152600490fd5b9050155f612165565b303b15915061215d565b869150612153565b5f80fd5b503461027d578060031936011261027d57604051631e61f6a360e31b8152602090f35b503461027d578060031936011261027d5761230361497f565b5f80516020614ab983398151915280546001600160a01b031981169091555f906001600160a01b03167f8be0079c531659141344cd1fd0a4f28419497f9722a3daafe3b4186f6b6457e08280a380f35b503461027d578060031936011261027d576040516334b1f22560e21b8152602090f35b503461027d578060031936011261027d5760405163ec07e9d360e01b8152602090f35b503461027d578060031936011261027d576020600754604051908152f35b503461027d57602036600319011261027d576123d1613ad6565b6123d961497f565b6001600160a01b0316801561242d57808252600160205260408220600160ff198254161790557f8cc3357993414364e6add1411f4853a44efd6c6a279b45a373ad4376d9ea1262602060405160018152a280f35b60405162461bcd60e51b815260206004820152601960248201527f496e76616c696420666f727761726465722061646472657373000000000000006044820152606490fd5b503461027d57602036600319011261027d5760209060ff906040906001600160a01b0361249d613ad6565b168152600184522054166040519015158152f35b503461027d57602080600319360112610ef857600435338352600182526124de60ff604085205416613cd7565b808352600282526040832060018101546001600160a01b03906125049082161515613dc5565b6006820180549092909161252e60d084901b6001600160e01b0319166334b1f22560e21b14613e07565b60ff83166007811015610869576125459015613e49565b600c82015442106125e7576011820154861c169485156125af57506002810180546001600160a01b03191686179055601281015460079091015560ff191660011790557f8259e46acb41c409f7763c24e2f5dba1221be1944b6960acbfaf4ee07ea8de1e8380a380f35b6064906040519062461bcd60e51b825260048201526011602482015270139bc8189a591cc81cdd589b5a5d1d1959607a1b6044820152fd5b60405162461bcd60e51b815260048101879052601760248201527f42696420646561646c696e65206e6f74207061737365640000000000000000006044820152606490fd5b503461027d578060031936011261027d577f00000000000000000000000000000000000000000000000000000000000000006001600160a01b031630036126975760206040517f360894a13ba1a3210667c828492db98dca3e2076cc3735a920a3ca505d382bbc8152f35b60405163703e46dd60e11b8152600490fd5b50604036600319011261027d576126be613ad6565b6024356001600160401b038111611ba35736602382011215611ba3576126ee903690602481600401359101613b75565b6001600160a01b037f00000000000000000000000000000000000000000000000000000000000000008116308114908115612871575b506126975761273161497f565b8216916040516352d1902d60e01b8152602081600481875afa859181612839575b5061277057604051634c9c8ce360e01b815260048101859052602490fd5b7f360894a13ba1a3210667c828492db98dca3e2076cc3735a920a3ca505d382bbc908181036128215750813b156128085780546001600160a01b03191684179055604051927fbc7cd75a20ee27fd9adebab32041f755214dbc6bffa90cc0225b39da2e5c2d3b8580a28151156127ee576127ea9250614a27565b5080f35b5050346127f9575080f35b63b398979f60e01b8152600490fd5b604051634c9c8ce360e01b815260048101859052602490fd5b60249060405190632a87526960e21b82526004820152fd5b9091506020813d602011612869575b8161285560209383613b54565b810103126128655751905f612752565b8580fd5b3d9150612848565b9050817f360894a13ba1a3210667c828492db98dca3e2076cc3735a920a3ca505d382bbc541614155f612724565b503461027d57602036600319011261027d576128b9613ad6565b6128c161497f565b6001600160a01b0316808252600160209081526040808420805460ff19169055518381527f8cc3357993414364e6add1411f4853a44efd6c6a279b45a373ad4376d9ea12629190a280f35b503461027d578060031936011261027d5760065460405160109190911c6001600160a01b03168152602090f35b503461027d57602036600319011261027d5760043561ffff81168091036122c35760207fb50f6c85631b448ef50a9b0055afaff00e6d81ec0ebf056cd4bef2d8b32dbbbc9161298661497f565b612994612710821115613d86565b8061ffff196006541617600655604051908152a180f35b503461027d57602036600319011261027d576129c5613ad6565b6129cd61497f565b600880546001600160a01b0319166001600160a01b039290921691821790557fae9f27c36d3aa52eba3f1db0e15d93fd0981a7ba056f20bed382a145202a301d8280a280f35b503461027d57602036600319011261027d576040606091612a32613ad6565b81838051612a3f81613b1e565b828152826020820152015260018060a01b03168152600360205220604051612a6681613b1e565b815491828252604060026001830154926020850193845201549201918252604051928352516020830152516040820152f35b50346122c35760c03660031901126122c35760ff60243516602435036122c3576084356001600160401b0381116122c357612ad7903690600401613aa9565b90335f526001602052612af060ff60405f205416613cd7565b612af86147b3565b6004355f90815260026020526040902060018101549091612b26916001600160a01b03918216911614613d4a565b600681015460ff81166007811015612dfc57600403612dc357606460ff6024351611612d875760081c60ff16612d525760068101805461ff00191660243560081b61ff00161790556002810180546001600160a01b03165f9081526003602052604090206001018054612b9890613d1b565b905560018060a01b038154165f526003602052600260405f2001612bc260ff602435168254613d3d565b905560018060a01b0390541660405160ff60243516815260643560208201527f5c9426dd920816b23cfd9daad6ecdbe1f542a77c85a30cbe25306443c8ede33c604060043592a3604435151580612d3e575b612c1c578380f35b6008546006909101546001600160a01b039190911690612c489060d01b6001600160e01b031916614831565b90803b156122c357612cc55f604086948296825198899788968794631e01b53f60e11b8652604435600487015260ff60243516600f0b60248701528760448701526101006064870152600f6101048701526e746d702e7461736b2e726174696e6760881b6101248701526101406084870152610144860190613a6b565b92601c858503600319810160a48801528886520160c486015281602085015285840137818101840185905260a43560e4840152601f01601f1916010301925af1612d10575b80808380f35b90506001600160401b038111612d2a576040525f80612d0a565b634e487b7160e01b5f52604160045260245ffd5b506008546001600160a01b03161515612c14565b60405162461bcd60e51b815260206004820152600d60248201526c105b1c9958591e481c985d1959609a1b6044820152606490fd5b60405162461bcd60e51b81526020600482015260146024820152730526174696e67206d75737420626520302d3130360641b6044820152606490fd5b60405162461bcd60e51b815260206004820152601160248201527015185cdac81b9bdd081858d8d95c1d1959607a1b6044820152606490fd5b634e487b7160e01b5f52602160045260245ffd5b346122c3576101003660031901126122c3576044356001600160e01b0319811681036122c35760c4356001600160401b0381116122c357612e55903690600401613aa9565b9060e4356001600160e01b0319811690036122c357335f526001602052612e8260ff60405f205416613cd7565b6001600160a01b03612e926147b3565b169081156135ed57600435156135a85760243515613563576001600160e01b0319841663a81913a560e01b148015613549575b801561352f575b8015613515575b80156134fb575b156134c7576001600160e01b031984166334b1f22560e21b146133ff575b815f52600960205260405f20805490612f1082613d1b565b9055604051904660208301523060408301528360608301526080820152608081528060a08101106001600160401b0360a083011117612d2a5760a081016040526020815191012092613082612f6760243542613d3d565b926001600160e01b0319871663ec07e9d360e01b036133f857612f8c60643542613d3d565b925b60065461ffff166001600160e01b031989166334b1f22560e21b036133f257612fb960843542613d3d565b6001600160e01b03198a166334b1f22560e21b036133eb57600435915b6001600160e01b03198b166334b1f22560e21b036133e45760e435965b604051986130008a613b02565b8b8a528a60208b01525f60408b015260043560608b01524260808b015260a08a01525f60c08a01525f60e08a015263ffffffff60e01b8c166101008a01525f6101208a01525f6101408a01525f6101608a01526101808901526101a08801526101c08701526101e08601525f61020086015260a4356102208601523691613b75565b61024083015263ffffffff60e01b166102608201525f6102808201525f6102a0820152825f52600260205260405f2090805182556001820160018060a01b036020830151166001600160601b0360a01b8254161790556002820160018060a01b036040830151166001600160601b0360a01b825416179055606081015160038301556080810151600483015560a0810151600583015560c08101516007811015612dfc5760068301805460e084015161010085015165ffffffffffff1990921660ff9490941693909317600893841b61ff00161760d09190911c65ffffffff000016179055610120820151600784015561014082015190830180546001600160a01b0319166001600160a01b03929092169190911790556101608101516009830155610180810151600a8301556101a0810151600b8301805461ffff191661ffff929092169190911790556101c0810151600c8301556101e0810151600d830155610200810151600e830155610220810151600f8301556102408101518051906001600160401b038211612d2a5761321d6010850154613bfd565b601f81116133a0575b5091859391602097938890601f8311600114613308577fbdfc881a16a3a04e41fed1091f413ffc0872156818c3b19a8331a07a020ca690959383606096946012946102a0945f926132fd575b50508160011b915f199060031b1c19161760108501555b610260810151601185018054610280840151640100000000600160c01b0360209190911b1660e09390931c6001600160c01b03199091161791909117905501519101556132d860243542613d3d565b906040519160043583528883015263ffffffff60e01b166040820152a3604051908152f35b015190508d80613272565b90601085015f52895f20915f5b601f19851681106133865750936001846012946102a0947fbdfc881a16a3a04e41fed1091f413ffc0872156818c3b19a8331a07a020ca6909a9860609a98601f1981161061336e575b505050811b016010850155613289565b01515f1960f88460031b161c191690558d808061335e565b8183015184558a9850600190930192918b01918b01613315565b601085015f5260205f20601f840160051c8101602085106133dd575b601f830160051c820181106133d2575050613226565b5f81556001016133bc565b50806133bc565b5f96612ff3565b5f91612fd6565b5f612fb9565b5f92612f8e565b60e4356001600160e01b031916633c948d2360e01b1480156134ab575b801561348f575b8015613473575b612ef85760405162461bcd60e51b815260206004820152601760248201527f496e76616c69642061756374696f6e20737562747970650000000000000000006044820152606490fd5b5060e4356001600160e01b0319166310cf2d7f60e01b1461342a565b5060e4356001600160e01b03191663e1022c5b60e01b14613423565b5060e4356001600160e01b0319166360ce192b60e11b1461341c565b60405162461bcd60e51b815260206004820152600c60248201526b496e76616c6964206d6f646560a01b6044820152606490fd5b506001600160e01b031984166334b1f22560e21b14612eda565b506001600160e01b0319841663687b54cd60e01b14612ed3565b506001600160e01b0319841663ec07e9d360e01b14612ecc565b506001600160e01b03198416631e61f6a360e31b14612ec5565b60405162461bcd60e51b815260206004820152601f60248201527f4475726174696f6e206d7573742062652067726561746572207468616e2030006044820152606490fd5b60405162461bcd60e51b815260206004820152601d60248201527f526577617264206d7573742062652067726561746572207468616e20300000006044820152606490fd5b60405162461bcd60e51b815260206004820152601160248201527024b73b30b634b2103932b8bab2b9ba32b960791b6044820152606490fd5b346122c3575f3660031901126122c35760405163e1022c5b60e01b8152602090f35b346122c35760203660031901126122c3575f6102a060405161366981613b02565b8281528260208201528260408201528260608201528260808201528260a08201528260c08201528260e08201528261010082015282610120820152826101408201528261016082015282610180820152826101a0820152826101c0820152826101e082015282610200820152826102208201526060610240820152826102608201528261028082015201526004355f52600260205260405f206040519061370f82613b02565b8054825260018101546001600160a01b03908116602084015260028201541660408301526003810154606083015260048101546080830152600581015460a0830152600681015490600760ff83161015612dfc5760ff80831660c0850152600883811c90911660e085015260d09290921b6001600160e01b0319166101008401526007810154610120840152908101546001600160a01b03166101408301526009810154610160830152600a810154610180830152600b81015461ffff166101a0830152600c8101546101c0830152600d8101546101e0830152600e810154610200830152600f81015461022083015260129061380e60108201613c35565b610240840152601181015463ffffffff60e01b8160e01b1661026085015260018060a01b039060201c1661028084015201546102a08201526040518091602082528051602083015260018060a01b03602082015116604083015260018060a01b03604082015116606083015260608101516080830152608081015160a083015260a081015160c08301526138aa60c082015160e0840190613a5e565b60ff60e08201511661010083015263ffffffff60e01b6101008201511661012083015261012081015161014083015260018060a01b03610140820151166101608301526101608101516101808301526101808101516101a083015261ffff6101a0820151166101c08301526101c08101516101e08301526101e08101516102008301526102008101516102208301526102208101516102408301526102408101516102a06139676102c092836102608701526102e0860190613a6b565b6102608401516001600160e01b031916610280868101919091528401516001600160a01b031682860152920151908301520390f35b346122c3575f3660031901126122c3575f546040516001600160a01b039091168152602090f35b346122c35760203660031901126122c3576004359063ffffffff60e01b82168092036122c35760209163528d9f5760e11b8114908115613a4d575b8115613a3c575b8115613a2b575b8115613a1a575b5015158152f35b6301ffc9a760e01b14905083613a13565b634eb48e9b60e11b81149150613a0c565b6340f6076960e01b81149150613a05565b63c8db44e360e01b811491506139fe565b906007821015612dfc5752565b91908251928382525f5b848110613a95575050825f602080949584010152601f8019910116010190565b602081830181015184830182015201613a75565b9181601f840112156122c3578235916001600160401b0383116122c357602083818601950101116122c357565b600435906001600160a01b03821682036122c357565b602435906001600160a01b03821682036122c357565b6102c081019081106001600160401b03821117612d2a57604052565b606081019081106001600160401b03821117612d2a57604052565b604081019081106001600160401b03821117612d2a57604052565b90601f801991011681019081106001600160401b03821117612d2a57604052565b9291926001600160401b038211612d2a5760405191613b9e601f8201601f191660200184613b54565b8294818452818301116122c3578281602093845f960137010152565b60409060031901126122c3576004359060243590565b8054821015613be9575f5260205f209060011b01905f90565b634e487b7160e01b5f52603260045260245ffd5b90600182811c92168015613c2b575b6020831014613c1757565b634e487b7160e01b5f52602260045260245ffd5b91607f1691613c0c565b9060405191825f8254613c4781613bfd565b908184526020946001916001811690815f14613cb55750600114613c77575b505050613c7592500383613b54565b565b5f90815285812095935091905b818310613c9d575050613c7593508201015f8080613c66565b85548884018501529485019487945091830191613c84565b92505050613c7594925060ff191682840152151560051b8201015f8080613c66565b15613cde57565b60405162461bcd60e51b81526020600482015260156024820152742737ba103a393ab9ba32b2103337b93bb0b93232b960591b6044820152606490fd5b5f198114613d295760010190565b634e487b7160e01b5f52601160045260245ffd5b91908201809211613d2957565b15613d5157565b60405162461bcd60e51b815260206004820152600d60248201526c2737ba103932b8bab2b9ba32b960991b6044820152606490fd5b15613d8d57565b60405162461bcd60e51b815260206004820152601060248201526f08ccaca4084a0a640e8dede40d0d2ced60831b6044820152606490fd5b15613dcc57565b60405162461bcd60e51b815260206004820152601360248201527215185cdac8191bd95cc81b9bdd08195e1a5cdd606a1b6044820152606490fd5b15613e0e57565b60405162461bcd60e51b81526020600482015260136024820152724e6f7420616e2041756374696f6e207461736b60681b6044820152606490fd5b15613e5057565b60405162461bcd60e51b815260206004820152600d60248201526c2a30b9b5903737ba1037b832b760991b6044820152606490fd5b15613e8c57565b60405162461bcd60e51b815260206004820152601060248201526f4e6f74206120436c61696d207461736b60801b6044820152606490fd5b15613ecb57565b60405162461bcd60e51b81526020600482015260126024820152715461736b206e6f7420617661696c61626c6560701b6044820152606490fd5b15613f0c57565b60405162461bcd60e51b815260206004820152600c60248201526b15185cdac8195e1c1a5c995960a21b6044820152606490fd5b5f908152600260205260409020600681015460d01b6001600160e01b03191663687b54cd60e01b14613f7c57600101546001600160a01b031690565b506008546001600160a01b031690565b15613f9357565b60405162461bcd60e51b815260206004820152600a602482015269109a591cc8195e1a5cdd60b21b6044820152606490fd5b91908203918211613d2957565b908160209103126122c3575180151581036122c35790565b15613ff157565b60405162461bcd60e51b815260206004820152600f60248201526e0aedee4d6cae440dad2e6dac2e8c6d608b1b6044820152606490fd5b1561402f57565b60405162461bcd60e51b815260206004820152601360248201527215dbdc9ad95c881b9bdd081cd95b1958dd1959606a1b6044820152606490fd5b1561407157565b60405162461bcd60e51b815260206004820152601060248201526f15185cdac81b9bdd0818db185a5b595960821b6044820152606490fd5b156140b057565b60405162461bcd60e51b81526020600482015260166024820152752bb7b935b2b91036bab9ba1031329031b630b4b6b2b960511b6044820152606490fd5b81810292918115918404141715613d2957565b1561410857565b60405162461bcd60e51b815260206004820152601560248201527415dbdc9ad95c881c185e5b595b9d0819985a5b1959605a1b6044820152606490fd5b1561414c57565b60405162461bcd60e51b8152602060048201526013602482015272119959481d1c985b9cd9995c8819985a5b1959606a1b6044820152606490fd5b1561418e57565b60405162461bcd60e51b815260206004820152601360248201527214dd185ad9481c995d1d5c9b8819985a5b1959606a1b6044820152606490fd5b156141d057565b60405162461bcd60e51b815260206004820152600d60248201526c1499599d5b990819985a5b1959609a1b6044820152606490fd5b805f52600260205260405f20906001820161422a60018060a01b038254161515613dc5565b600583015442111561470a576006830192835460ff81166007811015612dfc57600481146146cd57600681146146975760d082901b6001600160e01b0319166334b1f22560e21b14908161468c575b5061444a5750835460ff1916600517845560038101545f8054845460405163a9059cbb60e01b81526001600160a01b0391821660048201526024810185905293979392602092849260449284929091165af18015614419576142e1915f9161443157506141c9565b5460d01b6001600160e01b031916631e61f6a360e31b1480614424575b61433d575b50546040519283526001600160a01b0316917fe4ec5a16418560274520eb1bbcfc0e4377564571957fcc2f8e2a7f44afba10de90602090a3565b5f80546008830180546007909401805460405163a9059cbb60e01b81526001600160a01b03968716600482015260248101919091529591949193909260209287926044928492165af1928315614419577ffbf073a7709bd64bf3406dfd536abdbc9a3750eb99c8f26f543768c24a237b07602087926143e582977fe4ec5a16418560274520eb1bbcfc0e4377564571957fcc2f8e2a7f44afba10de995f916144025750614187565b5493546040519081526001600160a01b0390941693a39150614303565b6112eb9150843d86116104585761044a8183613b54565b6040513d5f823e3d90fd5b50600781015415156142fe565b610452915060203d6020116104585761044a8183613b54565b9092916007840193845495600461447761271061446f61ffff600b870154168b6140ee565b048099613fc5565b9460ff1916179055600281019460018060a01b038654165f52600360205260405f206144a38154613d1b565b905583614638575b866145c4575b60036144c1920154905490613fc5565b8061450e575b505492546040805192835260208301959095526001600160a01b03908116949316927f46c82fee4cedc2a273b6dc93ed59039d9208122b933b8f32bd87a0034e336a9791a4565b5f8054835460405163a9059cbb60e01b81526001600160a01b03918216600482015260248101949094526020928492604492849291165af1908115614419575f916145a5575b5015614560575f6144c7565b60405162461bcd60e51b815260206004820152601760248201527f52657175657374657220726566756e64206661696c65640000000000000000006044820152606490fd5b6145be915060203d6020116104585761044a8183613b54565b5f614554565b5f805460065460405163a9059cbb60e01b81526001600160a01b0360109290921c82166004820152602481018b90529492602092869260449284929091165af1908115614419576146216003926144c1955f916113695750614145565b61462d89600754613d3d565b6007559250506144b1565b5f8054875460405163a9059cbb60e01b81526001600160a01b0391821660048201526024810188905292602092849260449284929091165af1801561441957614687915f916113885750614101565b6144ab565b60019150145f614279565b60405162461bcd60e51b815260206004820152600e60248201526d15185cdac818d85b98d95b1b195960921b6044820152606490fd5b60405162461bcd60e51b815260206004820152601560248201527415185cdac8185b1c9958591e481858d8d95c1d1959605a1b6044820152606490fd5b60405162461bcd60e51b815260206004820152601060248201526f15185cdac81b9bdd08195e1c1a5c995960821b6044820152606490fd5b6001600160a01b0390811690811561479b575f80516020614ab983398151915280546001600160a01b031981168417909155167f8be0079c531659141344cd1fd0a4f28419497f9722a3daafe3b4186f6b6457e05f80a3565b604051631e4fbdf760e01b81525f6004820152602490fd5b335f52600160205260ff60405f2054166147cb573390565b604051631cb9dd3760e21b8152602081600481335afa908115614419575f916147f2575090565b90506020813d602011614829575b8161480d60209383613b54565b810103126122c357516001600160a01b03811681036122c35790565b3d9150614800565b6001600160e01b03191663a81913a560e01b811461495357631e61f6a360e31b81146149285763ec07e9d360e01b81146148fd5763687b54cd60e01b81146148ce576334b1f22560e21b146148a257604051602081018181106001600160401b03821117612d2a576040525f815290565b6040516148ae81613b39565b601081526f3a36b81736b7b2329730bab1ba34b7b760811b602082015290565b506040516148db81613b39565b6012815271746d702e6d6f64652e62656e63686d61726b60701b602082015290565b5060405161490a81613b39565b600e81526d0e8dae05cdadec8ca5ce0d2e8c6d60931b602082015290565b5060405161493581613b39565b600e81526d746d702e6d6f64652e636c61696d60901b602082015290565b5060405161496081613b39565b600f81526e746d702e6d6f64652e626f756e747960881b602082015290565b5f80516020614ab9833981519152546001600160a01b0316330361499f57565b60405163118cdaa760e01b8152336004820152602490fd5b5f80516020614ad983398151915260028154146149d45760029055565b604051633ee5aeb560e01b8152600490fd5b60ff7ff0c57e16840df040f15088dc2f81fe391c3923bec73e23a9662efc9c229c6a005460401c1615614a1557565b604051631afcd79f60e31b8152600490fd5b905f8091602081519101845af48080614aa5575b15614a5b5750506040513d81523d5f602083013e60203d82010160405290565b15614a8257604051639996b31560e01b81526001600160a01b039091166004820152602490fd5b3d15614a93576040513d5f823e3d90fd5b60405163d6bda27560e01b8152600490fd5b503d151580614a3b5750813b1515614a3b56fe9016d09d72d40fdae2fd8ceac6b6234c7706214fd39c1cd1e609a0528c1993009b779b17422d0df92223018b32b4d1fa46e071723d6817e2486d003becc55f007d30d1881f77d1707467f58525863cb9ccbaedc1c4ddb2a4d9dd1349ca7a4e4ba26469706673582212203f41f1d27b847d018a9f2b772550cb9709ea3d8eebdef74b82b1bbbdd61f09e564736f6c63430008180033","linkReferences":{}},"methodIdentifiers":{"AUCTION()":"63779c74","AUCTION_DUTCH()":"fe78aecf","AUCTION_ENGLISH()":"b2b7bdd5","AUCTION_REVERSE_DUTCH()":"1c8e57f8","AUCTION_REVERSE_ENGLISH()":"c104d24d","BENCHMARK()":"f152d325","BOUNTY()":"d081f2b8","CLAIM()":"73d74876","PITCH()":"63326459","UPGRADE_INTERFACE_VERSION()":"ad3cb1cc","acceptAuction(bytes32,uint256)":"a86592ba","acceptSubmission(bytes32,address)":"aeb87ecf","addForwarder(address)":"5c41d2fe","cancelTask(bytes32)":"ee8ca3b5","claimTask(bytes32,uint256)":"8c58d5fc","createTask(uint256,uint256,bytes4,uint256,uint256,bytes32,string,bytes4)":"1e52fce7","defaultFeeBps()":"bcae25a4","evaluatorFor(bytes32)":"9d691d36","feeForTask(bytes32)":"da0eb223","feeRecipient()":"46904840","forfeitAndReopen(bytes32)":"afdc54cd","getBids(bytes32)":"9d4f988b","getTask(bytes32)":"15a29035","getWorkerStats(address)":"365ba2dd","initialize(address,address,uint16)":"7ebef529","isTrustedForwarder(address)":"572b6c05","owner()":"8da5cb5b","proxiableUUID()":"52d1902d","rateTask(bytes32,uint8,uint256,uint256,string,bytes32)":"2144ea49","refundExpired(bytes32)":"cc3e049b","removeForwarder(address)":"4d93172d","renounceOwnership()":"715018a6","reputationRegistry()":"c8db44e3","requesterNonce(address)":"9f63f2a6","selectLowestBidder(bytes32)":"537da21f","selectWorker(bytes32,address)":"ce37a263","setDefaultFeeBps(uint16)":"4488b652","setFeeRecipient(address)":"e74b981b","setReputationRegistry(address)":"3f0ce714","stakeForfeit(bytes32)":"d8648871","submitBid(bytes32,uint256)":"91dc1d30","submitWork(bytes32,bytes32)":"db7260bc","supportsInterface(bytes4)":"01ffc9a7","taskBids(bytes32,uint256)":"a6eecb72","tasks(bytes32)":"e579f500","totalFeesCollected()":"60c6d8ae","transferOwnership(address)":"f2fde38b","trustedForwarders(address)":"54776bb9","updateTask(bytes32,uint256,uint256,uint256,uint256)":"ae2925a6","upgradeToAndCall(address,bytes)":"4f1ef286","usdcToken()":"11eac855","workerStats(address)":"e48a3a60"},"id":50}